{"abi":[{"inputs":[{"internalType":"uint256","name":"minimum","type":"uint256"}],"name":"createCampaign","outputs":[],"stateMutability":"nonpayable","type":"function"},{"inputs":[{"internalType":"uint256","name":"","type":"uint256"}],"name":"deployedCampaigns","outputs":[{"internalType":"address","name":"","type":"address"}],"stateMutability":"view","type":"function"},{"inputs":[],"name":"getDeployedCampaigns","outputs":[{"internalType":"address[]","name":"","type":"address[]"}],"stateMutability":"view","type":"function"}],"devdoc":{"kind":"dev","methods":{},"version":1},"evm":{"assembly":"    /* \"Campaign.sol\":58:421  contract CampaignFactory {... */\n  mstore(0x40, 0x80)\n  callvalue\n  dup1\n  iszero\n  tag_1\n  jumpi\n  0x00\n  dup1\n  revert\ntag_1:\n  pop\n  dataSize(sub_0)\n  dup1\n  dataOffset(sub_0)\n  0x00\n  codecopy\n  0x00\n  return\nstop\n\nsub_0: assembly {\n        /* \"Campaign.sol\":58:421  contract CampaignFactory {... */\n      mstore(0x40, 0x80)\n      callvalue\n      dup1\n      iszero\n      tag_1\n      jumpi\n      0x00\n      dup1\n      revert\n    tag_1:\n      pop\n      jumpi(tag_2, lt(calldatasize, 0x04))\n      shr(0xe0, calldataload(0x00))\n      dup1\n      0x339d50a5\n      eq\n      tag_3\n      jumpi\n      dup1\n      0x4acb9d4f\n      eq\n      tag_4\n      jumpi\n      dup1\n      0xa3303a75\n      eq\n      tag_5\n      jumpi\n    tag_2:\n      0x00\n      dup1\n      revert\n        /* \"Campaign.sol\":89:123  address[] public deployedCampaigns */\n    tag_3:\n      tag_6\n      0x04\n      dup1\n      calldatasize\n      sub\n      dup2\n      add\n      swap1\n      tag_7\n      swap2\n      swap1\n      tag_8\n      jump\t// in\n    tag_7:\n      tag_9\n      jump\t// in\n    tag_6:\n      mload(0x40)\n      tag_10\n      swap2\n      swap1\n      tag_11\n      jump\t// in\n    tag_10:\n      mload(0x40)\n      dup1\n      swap2\n      sub\n      swap1\n      return\n        /* \"Campaign.sol\":307:419  function getDeployedCampaigns() public view returns (address[] memory) {... */\n    tag_4:\n      tag_12\n      tag_13\n      jump\t// in\n    tag_12:\n      mload(0x40)\n      tag_14\n      swap2\n      swap1\n      tag_15\n      jump\t// in\n    tag_14:\n      mload(0x40)\n      dup1\n      swap2\n      sub\n      swap1\n      return\n        /* \"Campaign.sol\":130:301  function createCampaign(uint minimum) public {... */\n    tag_5:\n      tag_16\n      0x04\n      dup1\n      calldatasize\n      sub\n      dup2\n      add\n      swap1\n      tag_17\n      swap2\n      swap1\n      tag_8\n      jump\t// in\n    tag_17:\n      tag_18\n      jump\t// in\n    tag_16:\n      stop\n        /* \"Campaign.sol\":89:123  address[] public deployedCampaigns */\n    tag_9:\n      0x00\n      dup2\n      dup2\n      sload\n      dup2\n      lt\n      tag_19\n      jumpi\n      0x00\n      dup1\n      revert\n    tag_19:\n      swap1\n      0x00\n      mstore\n      keccak256(0x00, 0x20)\n      add\n      0x00\n      swap2\n      pop\n      sload\n      swap1\n      0x0100\n      exp\n      swap1\n      div\n      0xffffffffffffffffffffffffffffffffffffffff\n      and\n      dup2\n      jump\t// out\n        /* \"Campaign.sol\":307:419  function getDeployedCampaigns() public view returns (address[] memory) {... */\n    tag_13:\n        /* \"Campaign.sol\":360:376  address[] memory */\n      0x60\n        /* \"Campaign.sol\":395:412  deployedCampaigns */\n      0x00\n        /* \"Campaign.sol\":388:412  return deployedCampaigns */\n      dup1\n      sload\n      dup1\n      0x20\n      mul\n      0x20\n      add\n      mload(0x40)\n      swap1\n      dup2\n      add\n      0x40\n      mstore\n      dup1\n      swap3\n      swap2\n      swap1\n      dup2\n      dup2\n      mstore\n      0x20\n      add\n      dup3\n      dup1\n      sload\n      dup1\n      iszero\n      tag_22\n      jumpi\n      0x20\n      mul\n      dup3\n      add\n      swap2\n      swap1\n      0x00\n      mstore\n      keccak256(0x00, 0x20)\n      swap1\n    tag_23:\n      dup2\n      0x00\n      swap1\n      sload\n      swap1\n      0x0100\n      exp\n      swap1\n      div\n      0xffffffffffffffffffffffffffffffffffffffff\n      and\n      0xffffffffffffffffffffffffffffffffffffffff\n      and\n      dup2\n      mstore\n      0x20\n      add\n      swap1\n      0x01\n      add\n      swap1\n      dup1\n      dup4\n      gt\n      tag_23\n      jumpi\n    tag_22:\n      pop\n      pop\n      pop\n      pop\n      pop\n      swap1\n      pop\n        /* \"Campaign.sol\":307:419  function getDeployedCampaigns() public view returns (address[] memory) {... */\n      swap1\n      jump\t// out\n        /* \"Campaign.sol\":130:301  function createCampaign(uint minimum) public {... */\n    tag_18:\n        /* \"Campaign.sol\":185:204  address newCampaign */\n      0x00\n        /* \"Campaign.sol\":228:235  minimum */\n      dup2\n        /* \"Campaign.sol\":237:247  msg.sender */\n      caller\n        /* \"Campaign.sol\":215:248  new Campaign(minimum, msg.sender) */\n      mload(0x40)\n      tag_25\n      swap1\n      tag_26\n      jump\t// in\n    tag_25:\n      tag_27\n      swap3\n      swap2\n      swap1\n      tag_28\n      jump\t// in\n    tag_27:\n      mload(0x40)\n      dup1\n      swap2\n      sub\n      swap1\n      0x00\n      create\n      dup1\n      iszero\n      dup1\n      iszero\n      tag_29\n      jumpi\n      returndatasize\n      0x00\n      dup1\n      returndatacopy\n      revert(0x00, returndatasize)\n    tag_29:\n      pop\n        /* \"Campaign.sol\":185:249  address newCampaign = address(new Campaign(minimum, msg.sender)) */\n      swap1\n      pop\n        /* \"Campaign.sol\":259:276  deployedCampaigns */\n      0x00\n        /* \"Campaign.sol\":282:293  newCampaign */\n      dup2\n        /* \"Campaign.sol\":259:294  deployedCampaigns.push(newCampaign) */\n      swap1\n      dup1\n      0x01\n      dup2\n      sload\n      add\n      dup1\n      dup3\n      sstore\n      dup1\n      swap2\n      pop\n      pop\n      0x01\n      swap1\n      sub\n      swap1\n      0x00\n      mstore\n      keccak256(0x00, 0x20)\n      add\n      0x00\n      swap1\n      swap2\n      swap1\n      swap2\n      swap1\n      swap2\n      0x0100\n      exp\n      dup2\n      sload\n      dup2\n      0xffffffffffffffffffffffffffffffffffffffff\n      mul\n      not\n      and\n      swap1\n      dup4\n      0xffffffffffffffffffffffffffffffffffffffff\n      and\n      mul\n      or\n      swap1\n      sstore\n      pop\n        /* \"Campaign.sol\":175:301  {... */\n      pop\n        /* \"Campaign.sol\":130:301  function createCampaign(uint minimum) public {... */\n      pop\n      jump\t// out\n    tag_26:\n      dataSize(sub_0)\n      dup1\n      dataOffset(sub_0)\n      dup4\n      codecopy\n      add\n      swap1\n      jump\t// out\n        /* \"#utility.yul\":88:205   */\n    tag_32:\n        /* \"#utility.yul\":197:198   */\n      0x00\n        /* \"#utility.yul\":194:195   */\n      dup1\n        /* \"#utility.yul\":187:199   */\n      revert\n        /* \"#utility.yul\":334:411   */\n    tag_34:\n        /* \"#utility.yul\":371:378   */\n      0x00\n        /* \"#utility.yul\":400:405   */\n      dup2\n        /* \"#utility.yul\":389:405   */\n      swap1\n      pop\n        /* \"#utility.yul\":334:411   */\n      swap2\n      swap1\n      pop\n      jump\t// out\n        /* \"#utility.yul\":417:539   */\n    tag_35:\n        /* \"#utility.yul\":490:514   */\n      tag_54\n        /* \"#utility.yul\":508:513   */\n      dup2\n        /* \"#utility.yul\":490:514   */\n      tag_34\n      jump\t// in\n    tag_54:\n        /* \"#utility.yul\":483:488   */\n      dup2\n        /* \"#utility.yul\":480:515   */\n      eq\n        /* \"#utility.yul\":470:533   */\n      tag_55\n      jumpi\n        /* \"#utility.yul\":529:530   */\n      0x00\n        /* \"#utility.yul\":526:527   */\n      dup1\n        /* \"#utility.yul\":519:531   */\n      revert\n        /* \"#utility.yul\":470:533   */\n    tag_55:\n        /* \"#utility.yul\":417:539   */\n      pop\n      jump\t// out\n        /* \"#utility.yul\":545:684   */\n    tag_36:\n        /* \"#utility.yul\":591:596   */\n      0x00\n        /* \"#utility.yul\":629:635   */\n      dup2\n        /* \"#utility.yul\":616:636   */\n      calldataload\n        /* \"#utility.yul\":607:636   */\n      swap1\n      pop\n        /* \"#utility.yul\":645:678   */\n      tag_57\n        /* \"#utility.yul\":672:677   */\n      dup2\n        /* \"#utility.yul\":645:678   */\n      tag_35\n      jump\t// in\n    tag_57:\n        /* \"#utility.yul\":545:684   */\n      swap3\n      swap2\n      pop\n      pop\n      jump\t// out\n        /* \"#utility.yul\":690:1019   */\n    tag_8:\n        /* \"#utility.yul\":749:755   */\n      0x00\n        /* \"#utility.yul\":798:800   */\n      0x20\n        /* \"#utility.yul\":786:795   */\n      dup3\n        /* \"#utility.yul\":777:784   */\n      dup5\n        /* \"#utility.yul\":773:796   */\n      sub\n        /* \"#utility.yul\":769:801   */\n      slt\n        /* \"#utility.yul\":766:885   */\n      iszero\n      tag_59\n      jumpi\n        /* \"#utility.yul\":804:883   */\n      tag_60\n      tag_32\n      jump\t// in\n    tag_60:\n        /* \"#utility.yul\":766:885   */\n    tag_59:\n        /* \"#utility.yul\":924:925   */\n      0x00\n        /* \"#utility.yul\":949:1002   */\n      tag_61\n        /* \"#utility.yul\":994:1001   */\n      dup5\n        /* \"#utility.yul\":985:991   */\n      dup3\n        /* \"#utility.yul\":974:983   */\n      dup6\n        /* \"#utility.yul\":970:992   */\n      add\n        /* \"#utility.yul\":949:1002   */\n      tag_36\n      jump\t// in\n    tag_61:\n        /* \"#utility.yul\":939:1002   */\n      swap2\n      pop\n        /* \"#utility.yul\":895:1012   */\n      pop\n        /* \"#utility.yul\":690:1019   */\n      swap3\n      swap2\n      pop\n      pop\n      jump\t// out\n        /* \"#utility.yul\":1025:1151   */\n    tag_37:\n        /* \"#utility.yul\":1062:1069   */\n      0x00\n        /* \"#utility.yul\":1102:1144   */\n      0xffffffffffffffffffffffffffffffffffffffff\n        /* \"#utility.yul\":1095:1100   */\n      dup3\n        /* \"#utility.yul\":1091:1145   */\n      and\n        /* \"#utility.yul\":1080:1145   */\n      swap1\n      pop\n        /* \"#utility.yul\":1025:1151   */\n      swap2\n      swap1\n      pop\n      jump\t// out\n        /* \"#utility.yul\":1157:1253   */\n    tag_38:\n        /* \"#utility.yul\":1194:1201   */\n      0x00\n        /* \"#utility.yul\":1223:1247   */\n      tag_64\n        /* \"#utility.yul\":1241:1246   */\n      dup3\n        /* \"#utility.yul\":1223:1247   */\n      tag_37\n      jump\t// in\n    tag_64:\n        /* \"#utility.yul\":1212:1247   */\n      swap1\n      pop\n        /* \"#utility.yul\":1157:1253   */\n      swap2\n      swap1\n      pop\n      jump\t// out\n        /* \"#utility.yul\":1259:1377   */\n    tag_39:\n        /* \"#utility.yul\":1346:1370   */\n      tag_66\n        /* \"#utility.yul\":1364:1369   */\n      dup2\n        /* \"#utility.yul\":1346:1370   */\n      tag_38\n      jump\t// in\n    tag_66:\n        /* \"#utility.yul\":1341:1344   */\n      dup3\n        /* \"#utility.yul\":1334:1371   */\n      mstore\n        /* \"#utility.yul\":1259:1377   */\n      pop\n      pop\n      jump\t// out\n        /* \"#utility.yul\":1383:1605   */\n    tag_11:\n        /* \"#utility.yul\":1476:1480   */\n      0x00\n        /* \"#utility.yul\":1514:1516   */\n      0x20\n        /* \"#utility.yul\":1503:1512   */\n      dup3\n        /* \"#utility.yul\":1499:1517   */\n      add\n        /* \"#utility.yul\":1491:1517   */\n      swap1\n      pop\n        /* \"#utility.yul\":1527:1598   */\n      tag_68\n        /* \"#utility.yul\":1595:1596   */\n      0x00\n        /* \"#utility.yul\":1584:1593   */\n      dup4\n        /* \"#utility.yul\":1580:1597   */\n      add\n        /* \"#utility.yul\":1571:1577   */\n      dup5\n        /* \"#utility.yul\":1527:1598   */\n      tag_39\n      jump\t// in\n    tag_68:\n        /* \"#utility.yul\":1383:1605   */\n      swap3\n      swap2\n      pop\n      pop\n      jump\t// out\n        /* \"#utility.yul\":1611:1725   */\n    tag_40:\n        /* \"#utility.yul\":1678:1684   */\n      0x00\n        /* \"#utility.yul\":1712:1717   */\n      dup2\n        /* \"#utility.yul\":1706:1718   */\n      mload\n        /* \"#utility.yul\":1696:1718   */\n      swap1\n      pop\n        /* \"#utility.yul\":1611:1725   */\n      swap2\n      swap1\n      pop\n      jump\t// out\n        /* \"#utility.yul\":1731:1915   */\n    tag_41:\n        /* \"#utility.yul\":1830:1841   */\n      0x00\n        /* \"#utility.yul\":1864:1870   */\n      dup3\n        /* \"#utility.yul\":1859:1862   */\n      dup3\n        /* \"#utility.yul\":1852:1871   */\n      mstore\n        /* \"#utility.yul\":1904:1908   */\n      0x20\n        /* \"#utility.yul\":1899:1902   */\n      dup3\n        /* \"#utility.yul\":1895:1909   */\n      add\n        /* \"#utility.yul\":1880:1909   */\n      swap1\n      pop\n        /* \"#utility.yul\":1731:1915   */\n      swap3\n      swap2\n      pop\n      pop\n      jump\t// out\n        /* \"#utility.yul\":1921:2053   */\n    tag_42:\n        /* \"#utility.yul\":1988:1992   */\n      0x00\n        /* \"#utility.yul\":2011:2014   */\n      dup2\n        /* \"#utility.yul\":2003:2014   */\n      swap1\n      pop\n        /* \"#utility.yul\":2041:2045   */\n      0x20\n        /* \"#utility.yul\":2036:2039   */\n      dup3\n        /* \"#utility.yul\":2032:2046   */\n      add\n        /* \"#utility.yul\":2024:2046   */\n      swap1\n      pop\n        /* \"#utility.yul\":1921:2053   */\n      swap2\n      swap1\n      pop\n      jump\t// out\n        /* \"#utility.yul\":2059:2167   */\n    tag_43:\n        /* \"#utility.yul\":2136:2160   */\n      tag_73\n        /* \"#utility.yul\":2154:2159   */\n      dup2\n        /* \"#utility.yul\":2136:2160   */\n      tag_38\n      jump\t// in\n    tag_73:\n        /* \"#utility.yul\":2131:2134   */\n      dup3\n        /* \"#utility.yul\":2124:2161   */\n      mstore\n        /* \"#utility.yul\":2059:2167   */\n      pop\n      pop\n      jump\t// out\n        /* \"#utility.yul\":2173:2352   */\n    tag_44:\n        /* \"#utility.yul\":2242:2252   */\n      0x00\n        /* \"#utility.yul\":2263:2309   */\n      tag_75\n        /* \"#utility.yul\":2305:2308   */\n      dup4\n        /* \"#utility.yul\":2297:2303   */\n      dup4\n        /* \"#utility.yul\":2263:2309   */\n      tag_43\n      jump\t// in\n    tag_75:\n        /* \"#utility.yul\":2341:2345   */\n      0x20\n        /* \"#utility.yul\":2336:2339   */\n      dup4\n        /* \"#utility.yul\":2332:2346   */\n      add\n        /* \"#utility.yul\":2318:2346   */\n      swap1\n      pop\n        /* \"#utility.yul\":2173:2352   */\n      swap3\n      swap2\n      pop\n      pop\n      jump\t// out\n        /* \"#utility.yul\":2358:2471   */\n    tag_45:\n        /* \"#utility.yul\":2428:2432   */\n      0x00\n        /* \"#utility.yul\":2460:2464   */\n      0x20\n        /* \"#utility.yul\":2455:2458   */\n      dup3\n        /* \"#utility.yul\":2451:2465   */\n      add\n        /* \"#utility.yul\":2443:2465   */\n      swap1\n      pop\n        /* \"#utility.yul\":2358:2471   */\n      swap2\n      swap1\n      pop\n      jump\t// out\n        /* \"#utility.yul\":2507:3239   */\n    tag_46:\n        /* \"#utility.yul\":2626:2629   */\n      0x00\n        /* \"#utility.yul\":2655:2709   */\n      tag_78\n        /* \"#utility.yul\":2703:2708   */\n      dup3\n        /* \"#utility.yul\":2655:2709   */\n      tag_40\n      jump\t// in\n    tag_78:\n        /* \"#utility.yul\":2725:2811   */\n      tag_79\n        /* \"#utility.yul\":2804:2810   */\n      dup2\n        /* \"#utility.yul\":2799:2802   */\n      dup6\n        /* \"#utility.yul\":2725:2811   */\n      tag_41\n      jump\t// in\n    tag_79:\n        /* \"#utility.yul\":2718:2811   */\n      swap4\n      pop\n        /* \"#utility.yul\":2835:2891   */\n      tag_80\n        /* \"#utility.yul\":2885:2890   */\n      dup4\n        /* \"#utility.yul\":2835:2891   */\n      tag_42\n      jump\t// in\n    tag_80:\n        /* \"#utility.yul\":2914:2921   */\n      dup1\n        /* \"#utility.yul\":2945:2946   */\n      0x00\n        /* \"#utility.yul\":2930:3214   */\n    tag_81:\n        /* \"#utility.yul\":2955:2961   */\n      dup4\n        /* \"#utility.yul\":2952:2953   */\n      dup2\n        /* \"#utility.yul\":2949:2962   */\n      lt\n        /* \"#utility.yul\":2930:3214   */\n      iszero\n      tag_83\n      jumpi\n        /* \"#utility.yul\":3031:3037   */\n      dup2\n        /* \"#utility.yul\":3025:3038   */\n      mload\n        /* \"#utility.yul\":3058:3121   */\n      tag_84\n        /* \"#utility.yul\":3117:3120   */\n      dup9\n        /* \"#utility.yul\":3102:3115   */\n      dup3\n        /* \"#utility.yul\":3058:3121   */\n      tag_44\n      jump\t// in\n    tag_84:\n        /* \"#utility.yul\":3051:3121   */\n      swap8\n      pop\n        /* \"#utility.yul\":3144:3204   */\n      tag_85\n        /* \"#utility.yul\":3197:3203   */\n      dup4\n        /* \"#utility.yul\":3144:3204   */\n      tag_45\n      jump\t// in\n    tag_85:\n        /* \"#utility.yul\":3134:3204   */\n      swap3\n      pop\n        /* \"#utility.yul\":2990:3214   */\n      pop\n        /* \"#utility.yul\":2977:2978   */\n      0x01\n        /* \"#utility.yul\":2974:2975   */\n      dup2\n        /* \"#utility.yul\":2970:2979   */\n      add\n        /* \"#utility.yul\":2965:2979   */\n      swap1\n      pop\n        /* \"#utility.yul\":2930:3214   */\n      jump(tag_81)\n    tag_83:\n        /* \"#utility.yul\":2934:2948   */\n      pop\n        /* \"#utility.yul\":3230:3233   */\n      dup6\n        /* \"#utility.yul\":3223:3233   */\n      swap4\n      pop\n        /* \"#utility.yul\":2631:3239   */\n      pop\n      pop\n      pop\n        /* \"#utility.yul\":2507:3239   */\n      swap3\n      swap2\n      pop\n      pop\n      jump\t// out\n        /* \"#utility.yul\":3245:3618   */\n    tag_15:\n        /* \"#utility.yul\":3388:3392   */\n      0x00\n        /* \"#utility.yul\":3426:3428   */\n      0x20\n        /* \"#utility.yul\":3415:3424   */\n      dup3\n        /* \"#utility.yul\":3411:3429   */\n      add\n        /* \"#utility.yul\":3403:3429   */\n      swap1\n      pop\n        /* \"#utility.yul\":3475:3484   */\n      dup2\n        /* \"#utility.yul\":3469:3473   */\n      dup2\n        /* \"#utility.yul\":3465:3485   */\n      sub\n        /* \"#utility.yul\":3461:3462   */\n      0x00\n        /* \"#utility.yul\":3450:3459   */\n      dup4\n        /* \"#utility.yul\":3446:3463   */\n      add\n        /* \"#utility.yul\":3439:3486   */\n      mstore\n        /* \"#utility.yul\":3503:3611   */\n      tag_87\n        /* \"#utility.yul\":3606:3610   */\n      dup2\n        /* \"#utility.yul\":3597:3603   */\n      dup5\n        /* \"#utility.yul\":3503:3611   */\n      tag_46\n      jump\t// in\n    tag_87:\n        /* \"#utility.yul\":3495:3611   */\n      swap1\n      pop\n        /* \"#utility.yul\":3245:3618   */\n      swap3\n      swap2\n      pop\n      pop\n      jump\t// out\n        /* \"#utility.yul\":3624:3742   */\n    tag_47:\n        /* \"#utility.yul\":3711:3735   */\n      tag_89\n        /* \"#utility.yul\":3729:3734   */\n      dup2\n        /* \"#utility.yul\":3711:3735   */\n      tag_34\n      jump\t// in\n    tag_89:\n        /* \"#utility.yul\":3706:3709   */\n      dup3\n        /* \"#utility.yul\":3699:3736   */\n      mstore\n        /* \"#utility.yul\":3624:3742   */\n      pop\n      pop\n      jump\t// out\n        /* \"#utility.yul\":3748:4080   */\n    tag_28:\n        /* \"#utility.yul\":3869:3873   */\n      0x00\n        /* \"#utility.yul\":3907:3909   */\n      0x40\n        /* \"#utility.yul\":3896:3905   */\n      dup3\n        /* \"#utility.yul\":3892:3910   */\n      add\n        /* \"#utility.yul\":3884:3910   */\n      swap1\n      pop\n        /* \"#utility.yul\":3920:3991   */\n      tag_91\n        /* \"#utility.yul\":3988:3989   */\n      0x00\n        /* \"#utility.yul\":3977:3986   */\n      dup4\n        /* \"#utility.yul\":3973:3990   */\n      add\n        /* \"#utility.yul\":3964:3970   */\n      dup6\n        /* \"#utility.yul\":3920:3991   */\n      tag_47\n      jump\t// in\n    tag_91:\n        /* \"#utility.yul\":4001:4073   */\n      tag_92\n        /* \"#utility.yul\":4069:4071   */\n      0x20\n        /* \"#utility.yul\":4058:4067   */\n      dup4\n        /* \"#utility.yul\":4054:4072   */\n      add\n        /* \"#utility.yul\":4045:4051   */\n      dup5\n        /* \"#utility.yul\":4001:4073   */\n      tag_39\n      jump\t// in\n    tag_92:\n        /* \"#utility.yul\":3748:4080   */\n      swap4\n      swap3\n      pop\n      pop\n      pop\n      jump\t// out\n    stop\n\n    sub_0: assembly {\n            /* \"Campaign.sol\":423:2148  contract Campaign {... */\n          mstore(0x40, 0x80)\n            /* \"Campaign.sol\":914:1030  constructor(uint minimum, address creator) {... */\n          callvalue\n          dup1\n          iszero\n          tag_1\n          jumpi\n          0x00\n          dup1\n          revert\n        tag_1:\n          pop\n          mload(0x40)\n          sub(codesize, bytecodeSize)\n          dup1\n          bytecodeSize\n          dup4\n          codecopy\n          dup2\n          dup2\n          add\n          0x40\n          mstore\n          dup2\n          add\n          swap1\n          tag_2\n          swap2\n          swap1\n          tag_3\n          jump\t// in\n        tag_2:\n            /* \"Campaign.sol\":977:984  creator */\n          dup1\n            /* \"Campaign.sol\":967:974  manager */\n          0x01\n          0x00\n            /* \"Campaign.sol\":967:984  manager = creator */\n          0x0100\n          exp\n          dup2\n          sload\n          dup2\n          0xffffffffffffffffffffffffffffffffffffffff\n          mul\n          not\n          and\n          swap1\n          dup4\n          0xffffffffffffffffffffffffffffffffffffffff\n          and\n          mul\n          or\n          swap1\n          sstore\n          pop\n            /* \"Campaign.sol\":1016:1023  minimum */\n          dup2\n            /* \"Campaign.sol\":994:1013  minimumContribution */\n          0x02\n            /* \"Campaign.sol\":994:1023  minimumContribution = minimum */\n          dup2\n          swap1\n          sstore\n          pop\n            /* \"Campaign.sol\":914:1030  constructor(uint minimum, address creator) {... */\n          pop\n          pop\n            /* \"Campaign.sol\":423:2148  contract Campaign {... */\n          jump(tag_6)\n            /* \"#utility.yul\":88:205   */\n        tag_8:\n            /* \"#utility.yul\":197:198   */\n          0x00\n            /* \"#utility.yul\":194:195   */\n          dup1\n            /* \"#utility.yul\":187:199   */\n          revert\n            /* \"#utility.yul\":334:411   */\n        tag_10:\n            /* \"#utility.yul\":371:378   */\n          0x00\n            /* \"#utility.yul\":400:405   */\n          dup2\n            /* \"#utility.yul\":389:405   */\n          swap1\n          pop\n            /* \"#utility.yul\":334:411   */\n          swap2\n          swap1\n          pop\n          jump\t// out\n            /* \"#utility.yul\":417:539   */\n        tag_11:\n            /* \"#utility.yul\":490:514   */\n          tag_23\n            /* \"#utility.yul\":508:513   */\n          dup2\n            /* \"#utility.yul\":490:514   */\n          tag_10\n          jump\t// in\n        tag_23:\n            /* \"#utility.yul\":483:488   */\n          dup2\n            /* \"#utility.yul\":480:515   */\n          eq\n            /* \"#utility.yul\":470:533   */\n          tag_24\n          jumpi\n            /* \"#utility.yul\":529:530   */\n          0x00\n            /* \"#utility.yul\":526:527   */\n          dup1\n            /* \"#utility.yul\":519:531   */\n          revert\n            /* \"#utility.yul\":470:533   */\n        tag_24:\n            /* \"#utility.yul\":417:539   */\n          pop\n          jump\t// out\n            /* \"#utility.yul\":545:688   */\n        tag_12:\n            /* \"#utility.yul\":602:607   */\n          0x00\n            /* \"#utility.yul\":633:639   */\n          dup2\n            /* \"#utility.yul\":627:640   */\n          mload\n            /* \"#utility.yul\":618:640   */\n          swap1\n          pop\n            /* \"#utility.yul\":649:682   */\n          tag_26\n            /* \"#utility.yul\":676:681   */\n          dup2\n            /* \"#utility.yul\":649:682   */\n          tag_11\n          jump\t// in\n        tag_26:\n            /* \"#utility.yul\":545:688   */\n          swap3\n          swap2\n          pop\n          pop\n          jump\t// out\n            /* \"#utility.yul\":694:820   */\n        tag_13:\n            /* \"#utility.yul\":731:738   */\n          0x00\n            /* \"#utility.yul\":771:813   */\n          0xffffffffffffffffffffffffffffffffffffffff\n            /* \"#utility.yul\":764:769   */\n          dup3\n            /* \"#utility.yul\":760:814   */\n          and\n            /* \"#utility.yul\":749:814   */\n          swap1\n          pop\n            /* \"#utility.yul\":694:820   */\n          swap2\n          swap1\n          pop\n          jump\t// out\n            /* \"#utility.yul\":826:922   */\n        tag_14:\n            /* \"#utility.yul\":863:870   */\n          0x00\n            /* \"#utility.yul\":892:916   */\n          tag_29\n            /* \"#utility.yul\":910:915   */\n          dup3\n            /* \"#utility.yul\":892:916   */\n          tag_13\n          jump\t// in\n        tag_29:\n            /* \"#utility.yul\":881:916   */\n          swap1\n          pop\n            /* \"#utility.yul\":826:922   */\n          swap2\n          swap1\n          pop\n          jump\t// out\n            /* \"#utility.yul\":928:1050   */\n        tag_15:\n            /* \"#utility.yul\":1001:1025   */\n          tag_31\n            /* \"#utility.yul\":1019:1024   */\n          dup2\n            /* \"#utility.yul\":1001:1025   */\n          tag_14\n          jump\t// in\n        tag_31:\n            /* \"#utility.yul\":994:999   */\n          dup2\n            /* \"#utility.yul\":991:1026   */\n          eq\n            /* \"#utility.yul\":981:1044   */\n          tag_32\n          jumpi\n            /* \"#utility.yul\":1040:1041   */\n          0x00\n            /* \"#utility.yul\":1037:1038   */\n          dup1\n            /* \"#utility.yul\":1030:1042   */\n          revert\n            /* \"#utility.yul\":981:1044   */\n        tag_32:\n            /* \"#utility.yul\":928:1050   */\n          pop\n          jump\t// out\n            /* \"#utility.yul\":1056:1199   */\n        tag_16:\n            /* \"#utility.yul\":1113:1118   */\n          0x00\n            /* \"#utility.yul\":1144:1150   */\n          dup2\n            /* \"#utility.yul\":1138:1151   */\n          mload\n            /* \"#utility.yul\":1129:1151   */\n          swap1\n          pop\n            /* \"#utility.yul\":1160:1193   */\n          tag_34\n            /* \"#utility.yul\":1187:1192   */\n          dup2\n            /* \"#utility.yul\":1160:1193   */\n          tag_15\n          jump\t// in\n        tag_34:\n            /* \"#utility.yul\":1056:1199   */\n          swap3\n          swap2\n          pop\n          pop\n          jump\t// out\n            /* \"#utility.yul\":1205:1712   */\n        tag_3:\n            /* \"#utility.yul\":1284:1290   */\n          0x00\n            /* \"#utility.yul\":1292:1298   */\n          dup1\n            /* \"#utility.yul\":1341:1343   */\n          0x40\n            /* \"#utility.yul\":1329:1338   */\n          dup4\n            /* \"#utility.yul\":1320:1327   */\n          dup6\n            /* \"#utility.yul\":1316:1339   */\n          sub\n            /* \"#utility.yul\":1312:1344   */\n          slt\n            /* \"#utility.yul\":1309:1428   */\n          iszero\n          tag_36\n          jumpi\n            /* \"#utility.yul\":1347:1426   */\n          tag_37\n          tag_8\n          jump\t// in\n        tag_37:\n            /* \"#utility.yul\":1309:1428   */\n        tag_36:\n            /* \"#utility.yul\":1467:1468   */\n          0x00\n            /* \"#utility.yul\":1492:1556   */\n          tag_38\n            /* \"#utility.yul\":1548:1555   */\n          dup6\n            /* \"#utility.yul\":1539:1545   */\n          dup3\n            /* \"#utility.yul\":1528:1537   */\n          dup7\n            /* \"#utility.yul\":1524:1546   */\n          add\n            /* \"#utility.yul\":1492:1556   */\n          tag_12\n          jump\t// in\n        tag_38:\n            /* \"#utility.yul\":1482:1556   */\n          swap3\n          pop\n            /* \"#utility.yul\":1438:1566   */\n          pop\n            /* \"#utility.yul\":1605:1607   */\n          0x20\n            /* \"#utility.yul\":1631:1695   */\n          tag_39\n            /* \"#utility.yul\":1687:1694   */\n          dup6\n            /* \"#utility.yul\":1678:1684   */\n          dup3\n            /* \"#utility.yul\":1667:1676   */\n          dup7\n            /* \"#utility.yul\":1663:1685   */\n          add\n            /* \"#utility.yul\":1631:1695   */\n          tag_16\n          jump\t// in\n        tag_39:\n            /* \"#utility.yul\":1621:1695   */\n          swap2\n          pop\n            /* \"#utility.yul\":1576:1705   */\n          pop\n            /* \"#utility.yul\":1205:1712   */\n          swap3\n          pop\n          swap3\n          swap1\n          pop\n          jump\t// out\n            /* \"Campaign.sol\":423:2148  contract Campaign {... */\n        tag_6:\n          dataSize(sub_0)\n          dup1\n          dataOffset(sub_0)\n          0x00\n          codecopy\n          0x00\n          return\n        stop\n\n        sub_0: assembly {\n                /* \"Campaign.sol\":423:2148  contract Campaign {... */\n              mstore(0x40, 0x80)\n              jumpi(tag_1, lt(calldatasize, 0x04))\n              shr(0xe0, calldataload(0x00))\n              dup1\n              0x82fde093\n              gt\n              tag_11\n              jumpi\n              dup1\n              0x82fde093\n              eq\n              tag_6\n              jumpi\n              dup1\n              0x8a9cfd55\n              eq\n              tag_7\n              jumpi\n              dup1\n              0x937e09b1\n              eq\n              tag_8\n              jumpi\n              dup1\n              0xd7bb99ba\n              eq\n              tag_9\n              jumpi\n              dup1\n              0xd7d1bbdb\n              eq\n              tag_10\n              jumpi\n              jump(tag_1)\n            tag_11:\n              dup1\n              0x03441006\n              eq\n              tag_2\n              jumpi\n              dup1\n              0x0a144391\n              eq\n              tag_3\n              jumpi\n              dup1\n              0x481c6a75\n              eq\n              tag_4\n              jumpi\n              dup1\n              0x81d12c58\n              eq\n              tag_5\n              jumpi\n            tag_1:\n              0x00\n              dup1\n              revert\n                /* \"Campaign.sol\":1849:2145  function finalizeRequest(uint index) public restricted {... */\n            tag_2:\n              callvalue\n              dup1\n              iszero\n              tag_12\n              jumpi\n              0x00\n              dup1\n              revert\n            tag_12:\n              pop\n              tag_13\n              0x04\n              dup1\n              calldatasize\n              sub\n              dup2\n              add\n              swap1\n              tag_14\n              swap2\n              swap1\n              tag_15\n              jump\t// in\n            tag_14:\n              tag_16\n              jump\t// in\n            tag_13:\n              stop\n                /* \"Campaign.sol\":834:875  mapping(address => bool) public approvers */\n            tag_3:\n              callvalue\n              dup1\n              iszero\n              tag_17\n              jumpi\n              0x00\n              dup1\n              revert\n            tag_17:\n              pop\n              tag_18\n              0x04\n              dup1\n              calldatasize\n              sub\n              dup2\n              add\n              swap1\n              tag_19\n              swap2\n              swap1\n              tag_20\n              jump\t// in\n            tag_19:\n              tag_21\n              jump\t// in\n            tag_18:\n              mload(0x40)\n              tag_22\n              swap2\n              swap1\n              tag_23\n              jump\t// in\n            tag_22:\n              mload(0x40)\n              dup1\n              swap2\n              sub\n              swap1\n              return\n                /* \"Campaign.sol\":769:791  address public manager */\n            tag_4:\n              callvalue\n              dup1\n              iszero\n              tag_24\n              jumpi\n              0x00\n              dup1\n              revert\n            tag_24:\n              pop\n              tag_25\n              tag_26\n              jump\t// in\n            tag_25:\n              mload(0x40)\n              tag_27\n              swap2\n              swap1\n              tag_28\n              jump\t// in\n            tag_27:\n              mload(0x40)\n              dup1\n              swap2\n              sub\n              swap1\n              return\n                /* \"Campaign.sol\":738:763  Request[] public requests */\n            tag_5:\n              callvalue\n              dup1\n              iszero\n              tag_29\n              jumpi\n              0x00\n              dup1\n              revert\n            tag_29:\n              pop\n              tag_30\n              0x04\n              dup1\n              calldatasize\n              sub\n              dup2\n              add\n              swap1\n              tag_31\n              swap2\n              swap1\n              tag_15\n              jump\t// in\n            tag_31:\n              tag_32\n              jump\t// in\n            tag_30:\n              mload(0x40)\n              tag_33\n              swap6\n              swap5\n              swap4\n              swap3\n              swap2\n              swap1\n              tag_34\n              jump\t// in\n            tag_33:\n              mload(0x40)\n              dup1\n              swap2\n              sub\n              swap1\n              return\n                /* \"Campaign.sol\":881:907  uint public approversCount */\n            tag_6:\n              callvalue\n              dup1\n              iszero\n              tag_35\n              jumpi\n              0x00\n              dup1\n              revert\n            tag_35:\n              pop\n              tag_36\n              tag_37\n              jump\t// in\n            tag_36:\n              mload(0x40)\n              tag_38\n              swap2\n              swap1\n              tag_39\n              jump\t// in\n            tag_38:\n              mload(0x40)\n              dup1\n              swap2\n              sub\n              swap1\n              return\n                /* \"Campaign.sol\":1200:1566  function createRequest(string memory description, uint value, address payable recipient) public restricted  {... */\n            tag_7:\n              callvalue\n              dup1\n              iszero\n              tag_40\n              jumpi\n              0x00\n              dup1\n              revert\n            tag_40:\n              pop\n              tag_41\n              0x04\n              dup1\n              calldatasize\n              sub\n              dup2\n              add\n              swap1\n              tag_42\n              swap2\n              swap1\n              tag_43\n              jump\t// in\n            tag_42:\n              tag_44\n              jump\t// in\n            tag_41:\n              stop\n                /* \"Campaign.sol\":797:828  uint public minimumContribution */\n            tag_8:\n              callvalue\n              dup1\n              iszero\n              tag_45\n              jumpi\n              0x00\n              dup1\n              revert\n            tag_45:\n              pop\n              tag_46\n              tag_47\n              jump\t// in\n            tag_46:\n              mload(0x40)\n              tag_48\n              swap2\n              swap1\n              tag_39\n              jump\t// in\n            tag_48:\n              mload(0x40)\n              dup1\n              swap2\n              sub\n              swap1\n              return\n                /* \"Campaign.sol\":1036:1194  function contribute() public payable {... */\n            tag_9:\n              tag_49\n              tag_50\n              jump\t// in\n            tag_49:\n              stop\n                /* \"Campaign.sol\":1572:1843  function approveRequest(uint index) public {... */\n            tag_10:\n              callvalue\n              dup1\n              iszero\n              tag_51\n              jumpi\n              0x00\n              dup1\n              revert\n            tag_51:\n              pop\n              tag_52\n              0x04\n              dup1\n              calldatasize\n              sub\n              dup2\n              add\n              swap1\n              tag_53\n              swap2\n              swap1\n              tag_15\n              jump\t// in\n            tag_53:\n              tag_54\n              jump\t// in\n            tag_52:\n              stop\n                /* \"Campaign.sol\":1849:2145  function finalizeRequest(uint index) public restricted {... */\n            tag_16:\n                /* \"Campaign.sol\":500:507  manager */\n              0x01\n              0x00\n              swap1\n              sload\n              swap1\n              0x0100\n              exp\n              swap1\n              div\n              0xffffffffffffffffffffffffffffffffffffffff\n              and\n                /* \"Campaign.sol\":486:507  msg.sender == manager */\n              0xffffffffffffffffffffffffffffffffffffffff\n              and\n                /* \"Campaign.sol\":486:496  msg.sender */\n              caller\n                /* \"Campaign.sol\":486:507  msg.sender == manager */\n              0xffffffffffffffffffffffffffffffffffffffff\n              and\n              eq\n                /* \"Campaign.sol\":478:508  require(msg.sender == manager) */\n              tag_56\n              jumpi\n              0x00\n              dup1\n              revert\n            tag_56:\n                /* \"Campaign.sol\":1914:1937  Request storage request */\n              0x00\n                /* \"Campaign.sol\":1940:1948  requests */\n              dup1\n                /* \"Campaign.sol\":1949:1954  index */\n              dup3\n                /* \"Campaign.sol\":1940:1955  requests[index] */\n              dup2\n              sload\n              dup2\n              lt\n              tag_58\n              jumpi\n              tag_59\n              tag_60\n              jump\t// in\n            tag_59:\n            tag_58:\n              swap1\n              0x00\n              mstore\n              keccak256(0x00, 0x20)\n              swap1\n              0x05\n              mul\n              add\n                /* \"Campaign.sol\":1914:1955  Request storage request = requests[index] */\n              swap1\n              pop\n                /* \"Campaign.sol\":1974:1981  request */\n              dup1\n                /* \"Campaign.sol\":1974:1990  request.complete */\n              0x02\n              add\n              0x14\n              swap1\n              sload\n              swap1\n              0x0100\n              exp\n              swap1\n              div\n              0xff\n              and\n                /* \"Campaign.sol\":1973:1990  !request.complete */\n              iszero\n                /* \"Campaign.sol\":1965:1991  require(!request.complete) */\n              tag_62\n              jumpi\n              0x00\n              dup1\n              revert\n            tag_62:\n                /* \"Campaign.sol\":2051:2052  2 */\n              0x02\n                /* \"Campaign.sol\":2034:2048  approversCount */\n              sload(0x04)\n                /* \"Campaign.sol\":2034:2052  approversCount / 2 */\n              tag_63\n              swap2\n              swap1\n              tag_64\n              jump\t// in\n            tag_63:\n                /* \"Campaign.sol\":2009:2016  request */\n              dup2\n                /* \"Campaign.sol\":2009:2030  request.approvalCount */\n              0x03\n              add\n              sload\n                /* \"Campaign.sol\":2009:2053  request.approvalCount > (approversCount / 2) */\n              gt\n                /* \"Campaign.sol\":2001:2054  require(request.approvalCount > (approversCount / 2)) */\n              tag_65\n              jumpi\n              0x00\n              dup1\n              revert\n            tag_65:\n                /* \"Campaign.sol\":2064:2071  request */\n              dup1\n                /* \"Campaign.sol\":2064:2081  request.recipient */\n              0x02\n              add\n              0x00\n              swap1\n              sload\n              swap1\n              0x0100\n              exp\n              swap1\n              div\n              0xffffffffffffffffffffffffffffffffffffffff\n              and\n                /* \"Campaign.sol\":2064:2090  request.recipient.transfer */\n              0xffffffffffffffffffffffffffffffffffffffff\n              and\n                /* \"Campaign.sol\":2064:2105  request.recipient.transfer(request.value) */\n              0x08fc\n                /* \"Campaign.sol\":2091:2098  request */\n              dup3\n                /* \"Campaign.sol\":2091:2104  request.value */\n              0x01\n              add\n              sload\n                /* \"Campaign.sol\":2064:2105  request.recipient.transfer(request.value) */\n              swap1\n              dup2\n              iszero\n              mul\n              swap1\n              mload(0x40)\n              0x00\n              mload(0x40)\n              dup1\n              dup4\n              sub\n              dup2\n              dup6\n              dup9\n              dup9\n              call\n              swap4\n              pop\n              pop\n              pop\n              pop\n              iszero\n              dup1\n              iszero\n              tag_67\n              jumpi\n              returndatasize\n              0x00\n              dup1\n              returndatacopy\n              revert(0x00, returndatasize)\n            tag_67:\n              pop\n                /* \"Campaign.sol\":2134:2138  true */\n              0x01\n                /* \"Campaign.sol\":2115:2122  request */\n              dup2\n                /* \"Campaign.sol\":2115:2131  request.complete */\n              0x02\n              add\n              0x14\n                /* \"Campaign.sol\":2115:2138  request.complete = true */\n              0x0100\n              exp\n              dup2\n              sload\n              dup2\n              0xff\n              mul\n              not\n              and\n              swap1\n              dup4\n              iszero\n              iszero\n              mul\n              or\n              swap1\n              sstore\n              pop\n                /* \"Campaign.sol\":1904:2145  {... */\n              pop\n                /* \"Campaign.sol\":1849:2145  function finalizeRequest(uint index) public restricted {... */\n              pop\n              jump\t// out\n                /* \"Campaign.sol\":834:875  mapping(address => bool) public approvers */\n            tag_21:\n              mstore(0x20, 0x03)\n              dup1\n              0x00\n              mstore\n              keccak256(0x00, 0x40)\n              0x00\n              swap2\n              pop\n              sload\n              swap1\n              0x0100\n              exp\n              swap1\n              div\n              0xff\n              and\n              dup2\n              jump\t// out\n                /* \"Campaign.sol\":769:791  address public manager */\n            tag_26:\n              0x01\n              0x00\n              swap1\n              sload\n              swap1\n              0x0100\n              exp\n              swap1\n              div\n              0xffffffffffffffffffffffffffffffffffffffff\n              and\n              dup2\n              jump\t// out\n                /* \"Campaign.sol\":738:763  Request[] public requests */\n            tag_32:\n              0x00\n              dup2\n              dup2\n              sload\n              dup2\n              lt\n              tag_68\n              jumpi\n              0x00\n              dup1\n              revert\n            tag_68:\n              swap1\n              0x00\n              mstore\n              keccak256(0x00, 0x20)\n              swap1\n              0x05\n              mul\n              add\n              0x00\n              swap2\n              pop\n              swap1\n              pop\n              dup1\n              0x00\n              add\n              dup1\n              sload\n              tag_70\n              swap1\n              tag_71\n              jump\t// in\n            tag_70:\n              dup1\n              0x1f\n              add\n              0x20\n              dup1\n              swap2\n              div\n              mul\n              0x20\n              add\n              mload(0x40)\n              swap1\n              dup2\n              add\n              0x40\n              mstore\n              dup1\n              swap3\n              swap2\n              swap1\n              dup2\n              dup2\n              mstore\n              0x20\n              add\n              dup3\n              dup1\n              sload\n              tag_72\n              swap1\n              tag_71\n              jump\t// in\n            tag_72:\n              dup1\n              iszero\n              tag_73\n              jumpi\n              dup1\n              0x1f\n              lt\n              tag_74\n              jumpi\n              0x0100\n              dup1\n              dup4\n              sload\n              div\n              mul\n              dup4\n              mstore\n              swap2\n              0x20\n              add\n              swap2\n              jump(tag_73)\n            tag_74:\n              dup3\n              add\n              swap2\n              swap1\n              0x00\n              mstore\n              keccak256(0x00, 0x20)\n              swap1\n            tag_75:\n              dup2\n              sload\n              dup2\n              mstore\n              swap1\n              0x01\n              add\n              swap1\n              0x20\n              add\n              dup1\n              dup4\n              gt\n              tag_75\n              jumpi\n              dup3\n              swap1\n              sub\n              0x1f\n              and\n              dup3\n              add\n              swap2\n            tag_73:\n              pop\n              pop\n              pop\n              pop\n              pop\n              swap1\n              dup1\n              0x01\n              add\n              sload\n              swap1\n              dup1\n              0x02\n              add\n              0x00\n              swap1\n              sload\n              swap1\n              0x0100\n              exp\n              swap1\n              div\n              0xffffffffffffffffffffffffffffffffffffffff\n              and\n              swap1\n              dup1\n              0x02\n              add\n              0x14\n              swap1\n              sload\n              swap1\n              0x0100\n              exp\n              swap1\n              div\n              0xff\n              and\n              swap1\n              dup1\n              0x03\n              add\n              sload\n              swap1\n              pop\n              dup6\n              jump\t// out\n                /* \"Campaign.sol\":881:907  uint public approversCount */\n            tag_37:\n              sload(0x04)\n              dup2\n              jump\t// out\n                /* \"Campaign.sol\":1200:1566  function createRequest(string memory description, uint value, address payable recipient) public restricted  {... */\n            tag_44:\n                /* \"Campaign.sol\":500:507  manager */\n              0x01\n              0x00\n              swap1\n              sload\n              swap1\n              0x0100\n              exp\n              swap1\n              div\n              0xffffffffffffffffffffffffffffffffffffffff\n              and\n                /* \"Campaign.sol\":486:507  msg.sender == manager */\n              0xffffffffffffffffffffffffffffffffffffffff\n              and\n                /* \"Campaign.sol\":486:496  msg.sender */\n              caller\n                /* \"Campaign.sol\":486:507  msg.sender == manager */\n              0xffffffffffffffffffffffffffffffffffffffff\n              and\n              eq\n                /* \"Campaign.sol\":478:508  require(msg.sender == manager) */\n              tag_77\n              jumpi\n              0x00\n              dup1\n              revert\n            tag_77:\n                /* \"Campaign.sol\":1318:1344  Request storage newRequest */\n              0x00\n                /* \"Campaign.sol\":1347:1355  requests */\n              dup1\n                /* \"Campaign.sol\":1347:1362  requests.push() */\n              0x01\n              dup2\n              0x01\n              dup2\n              sload\n              add\n              dup1\n              dup3\n              sstore\n              dup1\n              swap2\n              pop\n              pop\n              sub\n              swap1\n              0x00\n              mstore\n              keccak256(0x00, 0x20)\n              swap1\n              0x05\n              mul\n              add\n                /* \"Campaign.sol\":1318:1362  Request storage newRequest = requests.push() */\n              swap1\n              pop\n                /* \"Campaign.sol\":1397:1408  description */\n              dup4\n                /* \"Campaign.sol\":1372:1382  newRequest */\n              dup2\n                /* \"Campaign.sol\":1372:1394  newRequest.description */\n              0x00\n              add\n                /* \"Campaign.sol\":1372:1408  newRequest.description = description */\n              swap1\n              dup1\n              mload\n              swap1\n              0x20\n              add\n              swap1\n              tag_80\n              swap3\n              swap2\n              swap1\n              tag_81\n              jump\t// in\n            tag_80:\n              pop\n                /* \"Campaign.sol\":1437:1442  value */\n              dup3\n                /* \"Campaign.sol\":1418:1428  newRequest */\n              dup2\n                /* \"Campaign.sol\":1418:1434  newRequest.value */\n              0x01\n              add\n                /* \"Campaign.sol\":1418:1442  newRequest.value = value */\n              dup2\n              swap1\n              sstore\n              pop\n                /* \"Campaign.sol\":1475:1484  recipient */\n              dup2\n                /* \"Campaign.sol\":1452:1462  newRequest */\n              dup2\n                /* \"Campaign.sol\":1452:1472  newRequest.recipient */\n              0x02\n              add\n              0x00\n                /* \"Campaign.sol\":1452:1484  newRequest.recipient = recipient */\n              0x0100\n              exp\n              dup2\n              sload\n              dup2\n              0xffffffffffffffffffffffffffffffffffffffff\n              mul\n              not\n              and\n              swap1\n              dup4\n              0xffffffffffffffffffffffffffffffffffffffff\n              and\n              mul\n              or\n              swap1\n              sstore\n              pop\n                /* \"Campaign.sol\":1516:1521  false */\n              0x00\n                /* \"Campaign.sol\":1494:1504  newRequest */\n              dup2\n                /* \"Campaign.sol\":1494:1513  newRequest.complete */\n              0x02\n              add\n              0x14\n                /* \"Campaign.sol\":1494:1521  newRequest.complete = false */\n              0x0100\n              exp\n              dup2\n              sload\n              dup2\n              0xff\n              mul\n              not\n              and\n              swap1\n              dup4\n              iszero\n              iszero\n              mul\n              or\n              swap1\n              sstore\n              pop\n                /* \"Campaign.sol\":1558:1559  0 */\n              0x00\n                /* \"Campaign.sol\":1531:1541  newRequest */\n              dup2\n                /* \"Campaign.sol\":1531:1555  newRequest.approvalCount */\n              0x03\n              add\n                /* \"Campaign.sol\":1531:1559  newRequest.approvalCount = 0 */\n              dup2\n              swap1\n              sstore\n              pop\n                /* \"Campaign.sol\":1308:1566  {... */\n              pop\n                /* \"Campaign.sol\":1200:1566  function createRequest(string memory description, uint value, address payable recipient) public restricted  {... */\n              pop\n              pop\n              pop\n              jump\t// out\n                /* \"Campaign.sol\":797:828  uint public minimumContribution */\n            tag_47:\n              sload(0x02)\n              dup2\n              jump\t// out\n                /* \"Campaign.sol\":1036:1194  function contribute() public payable {... */\n            tag_50:\n                /* \"Campaign.sol\":1103:1122  minimumContribution */\n              sload(0x02)\n                /* \"Campaign.sol\":1091:1100  msg.value */\n              callvalue\n                /* \"Campaign.sol\":1091:1122  msg.value > minimumContribution */\n              gt\n                /* \"Campaign.sol\":1083:1123  require(msg.value > minimumContribution) */\n              tag_83\n              jumpi\n              0x00\n              dup1\n              revert\n            tag_83:\n                /* \"Campaign.sol\":1157:1161  true */\n              0x01\n                /* \"Campaign.sol\":1133:1142  approvers */\n              0x03\n                /* \"Campaign.sol\":1133:1154  approvers[msg.sender] */\n              0x00\n                /* \"Campaign.sol\":1143:1153  msg.sender */\n              caller\n                /* \"Campaign.sol\":1133:1154  approvers[msg.sender] */\n              0xffffffffffffffffffffffffffffffffffffffff\n              and\n              0xffffffffffffffffffffffffffffffffffffffff\n              and\n              dup2\n              mstore\n              0x20\n              add\n              swap1\n              dup2\n              mstore\n              0x20\n              add\n              0x00\n              keccak256\n              0x00\n                /* \"Campaign.sol\":1133:1161  approvers[msg.sender] = true */\n              0x0100\n              exp\n              dup2\n              sload\n              dup2\n              0xff\n              mul\n              not\n              and\n              swap1\n              dup4\n              iszero\n              iszero\n              mul\n              or\n              swap1\n              sstore\n              pop\n                /* \"Campaign.sol\":1171:1185  approversCount */\n              0x04\n              0x00\n                /* \"Campaign.sol\":1171:1187  approversCount++ */\n              dup2\n              sload\n              dup1\n              swap3\n              swap2\n              swap1\n              tag_84\n              swap1\n              tag_85\n              jump\t// in\n            tag_84:\n              swap2\n              swap1\n              pop\n              sstore\n              pop\n                /* \"Campaign.sol\":1036:1194  function contribute() public payable {... */\n              jump\t// out\n                /* \"Campaign.sol\":1572:1843  function approveRequest(uint index) public {... */\n            tag_54:\n                /* \"Campaign.sol\":1625:1648  Request storage request */\n              0x00\n                /* \"Campaign.sol\":1651:1659  requests */\n              dup1\n                /* \"Campaign.sol\":1660:1665  index */\n              dup3\n                /* \"Campaign.sol\":1651:1666  requests[index] */\n              dup2\n              sload\n              dup2\n              lt\n              tag_87\n              jumpi\n              tag_88\n              tag_60\n              jump\t// in\n            tag_88:\n            tag_87:\n              swap1\n              0x00\n              mstore\n              keccak256(0x00, 0x20)\n              swap1\n              0x05\n              mul\n              add\n                /* \"Campaign.sol\":1625:1666  Request storage request = requests[index] */\n              swap1\n              pop\n                /* \"Campaign.sol\":1685:1694  approvers */\n              0x03\n                /* \"Campaign.sol\":1685:1706  approvers[msg.sender] */\n              0x00\n                /* \"Campaign.sol\":1695:1705  msg.sender */\n              caller\n                /* \"Campaign.sol\":1685:1706  approvers[msg.sender] */\n              0xffffffffffffffffffffffffffffffffffffffff\n              and\n              0xffffffffffffffffffffffffffffffffffffffff\n              and\n              dup2\n              mstore\n              0x20\n              add\n              swap1\n              dup2\n              mstore\n              0x20\n              add\n              0x00\n              keccak256\n              0x00\n              swap1\n              sload\n              swap1\n              0x0100\n              exp\n              swap1\n              div\n              0xff\n              and\n                /* \"Campaign.sol\":1677:1707  require(approvers[msg.sender]) */\n              tag_90\n              jumpi\n              0x00\n              dup1\n              revert\n            tag_90:\n                /* \"Campaign.sol\":1726:1733  request */\n              dup1\n                /* \"Campaign.sol\":1726:1743  request.approvals */\n              0x04\n              add\n                /* \"Campaign.sol\":1726:1755  request.approvals[msg.sender] */\n              0x00\n                /* \"Campaign.sol\":1744:1754  msg.sender */\n              caller\n                /* \"Campaign.sol\":1726:1755  request.approvals[msg.sender] */\n              0xffffffffffffffffffffffffffffffffffffffff\n              and\n              0xffffffffffffffffffffffffffffffffffffffff\n              and\n              dup2\n              mstore\n              0x20\n              add\n              swap1\n              dup2\n              mstore\n              0x20\n              add\n              0x00\n              keccak256\n              0x00\n              swap1\n              sload\n              swap1\n              0x0100\n              exp\n              swap1\n              div\n              0xff\n              and\n                /* \"Campaign.sol\":1725:1755  !request.approvals[msg.sender] */\n              iszero\n                /* \"Campaign.sol\":1717:1756  require(!request.approvals[msg.sender]) */\n              tag_91\n              jumpi\n              0x00\n              dup1\n              revert\n            tag_91:\n                /* \"Campaign.sol\":1799:1803  true */\n              0x01\n                /* \"Campaign.sol\":1767:1774  request */\n              dup2\n                /* \"Campaign.sol\":1767:1784  request.approvals */\n              0x04\n              add\n                /* \"Campaign.sol\":1767:1796  request.approvals[msg.sender] */\n              0x00\n                /* \"Campaign.sol\":1785:1795  msg.sender */\n              caller\n                /* \"Campaign.sol\":1767:1796  request.approvals[msg.sender] */\n              0xffffffffffffffffffffffffffffffffffffffff\n              and\n              0xffffffffffffffffffffffffffffffffffffffff\n              and\n              dup2\n              mstore\n              0x20\n              add\n              swap1\n              dup2\n              mstore\n              0x20\n              add\n              0x00\n              keccak256\n              0x00\n                /* \"Campaign.sol\":1767:1803  request.approvals[msg.sender] = true */\n              0x0100\n              exp\n              dup2\n              sload\n              dup2\n              0xff\n              mul\n              not\n              and\n              swap1\n              dup4\n              iszero\n              iszero\n              mul\n              or\n              swap1\n              sstore\n              pop\n                /* \"Campaign.sol\":1813:1820  request */\n              dup1\n                /* \"Campaign.sol\":1813:1834  request.approvalCount */\n              0x03\n              add\n              0x00\n                /* \"Campaign.sol\":1813:1836  request.approvalCount++ */\n              dup2\n              sload\n              dup1\n              swap3\n              swap2\n              swap1\n              tag_92\n              swap1\n              tag_85\n              jump\t// in\n            tag_92:\n              swap2\n              swap1\n              pop\n              sstore\n              pop\n                /* \"Campaign.sol\":1615:1843  {... */\n              pop\n                /* \"Campaign.sol\":1572:1843  function approveRequest(uint index) public {... */\n              pop\n              jump\t// out\n            tag_81:\n              dup3\n              dup1\n              sload\n              tag_93\n              swap1\n              tag_71\n              jump\t// in\n            tag_93:\n              swap1\n              0x00\n              mstore\n              keccak256(0x00, 0x20)\n              swap1\n              0x1f\n              add\n              0x20\n              swap1\n              div\n              dup2\n              add\n              swap3\n              dup3\n              tag_95\n              jumpi\n              0x00\n              dup6\n              sstore\n              jump(tag_94)\n            tag_95:\n              dup3\n              0x1f\n              lt\n              tag_96\n              jumpi\n              dup1\n              mload\n              not(0xff)\n              and\n              dup4\n              dup1\n              add\n              or\n              dup6\n              sstore\n              jump(tag_94)\n            tag_96:\n              dup3\n              dup1\n              add\n              0x01\n              add\n              dup6\n              sstore\n              dup3\n              iszero\n              tag_94\n              jumpi\n              swap2\n              dup3\n              add\n            tag_97:\n              dup3\n              dup2\n              gt\n              iszero\n              tag_98\n              jumpi\n              dup3\n              mload\n              dup3\n              sstore\n              swap2\n              0x20\n              add\n              swap2\n              swap1\n              0x01\n              add\n              swap1\n              jump(tag_97)\n            tag_98:\n            tag_94:\n              pop\n              swap1\n              pop\n              tag_99\n              swap2\n              swap1\n              tag_100\n              jump\t// in\n            tag_99:\n              pop\n              swap1\n              jump\t// out\n            tag_100:\n            tag_101:\n              dup1\n              dup3\n              gt\n              iszero\n              tag_102\n              jumpi\n              0x00\n              dup2\n              0x00\n              swap1\n              sstore\n              pop\n              0x01\n              add\n              jump(tag_101)\n            tag_102:\n              pop\n              swap1\n              jump\t// out\n                /* \"#utility.yul\":7:82   */\n            tag_103:\n                /* \"#utility.yul\":40:46   */\n              0x00\n                /* \"#utility.yul\":73:75   */\n              0x40\n                /* \"#utility.yul\":67:76   */\n              mload\n                /* \"#utility.yul\":57:76   */\n              swap1\n              pop\n                /* \"#utility.yul\":7:82   */\n              swap1\n              jump\t// out\n                /* \"#utility.yul\":88:205   */\n            tag_104:\n                /* \"#utility.yul\":197:198   */\n              0x00\n                /* \"#utility.yul\":194:195   */\n              dup1\n                /* \"#utility.yul\":187:199   */\n              revert\n                /* \"#utility.yul\":211:328   */\n            tag_105:\n                /* \"#utility.yul\":320:321   */\n              0x00\n                /* \"#utility.yul\":317:318   */\n              dup1\n                /* \"#utility.yul\":310:322   */\n              revert\n                /* \"#utility.yul\":334:411   */\n            tag_106:\n                /* \"#utility.yul\":371:378   */\n              0x00\n                /* \"#utility.yul\":400:405   */\n              dup2\n                /* \"#utility.yul\":389:405   */\n              swap1\n              pop\n                /* \"#utility.yul\":334:411   */\n              swap2\n              swap1\n              pop\n              jump\t// out\n                /* \"#utility.yul\":417:539   */\n            tag_107:\n                /* \"#utility.yul\":490:514   */\n              tag_144\n                /* \"#utility.yul\":508:513   */\n              dup2\n                /* \"#utility.yul\":490:514   */\n              tag_106\n              jump\t// in\n            tag_144:\n                /* \"#utility.yul\":483:488   */\n              dup2\n                /* \"#utility.yul\":480:515   */\n              eq\n                /* \"#utility.yul\":470:533   */\n              tag_145\n              jumpi\n                /* \"#utility.yul\":529:530   */\n              0x00\n                /* \"#utility.yul\":526:527   */\n              dup1\n                /* \"#utility.yul\":519:531   */\n              revert\n                /* \"#utility.yul\":470:533   */\n            tag_145:\n                /* \"#utility.yul\":417:539   */\n              pop\n              jump\t// out\n                /* \"#utility.yul\":545:684   */\n            tag_108:\n                /* \"#utility.yul\":591:596   */\n              0x00\n                /* \"#utility.yul\":629:635   */\n              dup2\n                /* \"#utility.yul\":616:636   */\n              calldataload\n                /* \"#utility.yul\":607:636   */\n              swap1\n              pop\n                /* \"#utility.yul\":645:678   */\n              tag_147\n                /* \"#utility.yul\":672:677   */\n              dup2\n                /* \"#utility.yul\":645:678   */\n              tag_107\n              jump\t// in\n            tag_147:\n                /* \"#utility.yul\":545:684   */\n              swap3\n              swap2\n              pop\n              pop\n              jump\t// out\n                /* \"#utility.yul\":690:1019   */\n            tag_15:\n                /* \"#utility.yul\":749:755   */\n              0x00\n                /* \"#utility.yul\":798:800   */\n              0x20\n                /* \"#utility.yul\":786:795   */\n              dup3\n                /* \"#utility.yul\":777:784   */\n              dup5\n                /* \"#utility.yul\":773:796   */\n              sub\n                /* \"#utility.yul\":769:801   */\n              slt\n                /* \"#utility.yul\":766:885   */\n              iszero\n              tag_149\n              jumpi\n                /* \"#utility.yul\":804:883   */\n              tag_150\n              tag_104\n              jump\t// in\n            tag_150:\n                /* \"#utility.yul\":766:885   */\n            tag_149:\n                /* \"#utility.yul\":924:925   */\n              0x00\n                /* \"#utility.yul\":949:1002   */\n              tag_151\n                /* \"#utility.yul\":994:1001   */\n              dup5\n                /* \"#utility.yul\":985:991   */\n              dup3\n                /* \"#utility.yul\":974:983   */\n              dup6\n                /* \"#utility.yul\":970:992   */\n              add\n                /* \"#utility.yul\":949:1002   */\n              tag_108\n              jump\t// in\n            tag_151:\n                /* \"#utility.yul\":939:1002   */\n              swap2\n              pop\n                /* \"#utility.yul\":895:1012   */\n              pop\n                /* \"#utility.yul\":690:1019   */\n              swap3\n              swap2\n              pop\n              pop\n              jump\t// out\n                /* \"#utility.yul\":1025:1151   */\n            tag_109:\n                /* \"#utility.yul\":1062:1069   */\n              0x00\n                /* \"#utility.yul\":1102:1144   */\n              0xffffffffffffffffffffffffffffffffffffffff\n                /* \"#utility.yul\":1095:1100   */\n              dup3\n                /* \"#utility.yul\":1091:1145   */\n              and\n                /* \"#utility.yul\":1080:1145   */\n              swap1\n              pop\n                /* \"#utility.yul\":1025:1151   */\n              swap2\n              swap1\n              pop\n              jump\t// out\n                /* \"#utility.yul\":1157:1253   */\n            tag_110:\n                /* \"#utility.yul\":1194:1201   */\n              0x00\n                /* \"#utility.yul\":1223:1247   */\n              tag_154\n                /* \"#utility.yul\":1241:1246   */\n              dup3\n                /* \"#utility.yul\":1223:1247   */\n              tag_109\n              jump\t// in\n            tag_154:\n                /* \"#utility.yul\":1212:1247   */\n              swap1\n              pop\n                /* \"#utility.yul\":1157:1253   */\n              swap2\n              swap1\n              pop\n              jump\t// out\n                /* \"#utility.yul\":1259:1381   */\n            tag_111:\n                /* \"#utility.yul\":1332:1356   */\n              tag_156\n                /* \"#utility.yul\":1350:1355   */\n              dup2\n                /* \"#utility.yul\":1332:1356   */\n              tag_110\n              jump\t// in\n            tag_156:\n                /* \"#utility.yul\":1325:1330   */\n              dup2\n                /* \"#utility.yul\":1322:1357   */\n              eq\n                /* \"#utility.yul\":1312:1375   */\n              tag_157\n              jumpi\n                /* \"#utility.yul\":1371:1372   */\n              0x00\n                /* \"#utility.yul\":1368:1369   */\n              dup1\n                /* \"#utility.yul\":1361:1373   */\n              revert\n                /* \"#utility.yul\":1312:1375   */\n            tag_157:\n                /* \"#utility.yul\":1259:1381   */\n              pop\n              jump\t// out\n                /* \"#utility.yul\":1387:1526   */\n            tag_112:\n                /* \"#utility.yul\":1433:1438   */\n              0x00\n                /* \"#utility.yul\":1471:1477   */\n              dup2\n                /* \"#utility.yul\":1458:1478   */\n              calldataload\n                /* \"#utility.yul\":1449:1478   */\n              swap1\n              pop\n                /* \"#utility.yul\":1487:1520   */\n              tag_159\n                /* \"#utility.yul\":1514:1519   */\n              dup2\n                /* \"#utility.yul\":1487:1520   */\n              tag_111\n              jump\t// in\n            tag_159:\n                /* \"#utility.yul\":1387:1526   */\n              swap3\n              swap2\n              pop\n              pop\n              jump\t// out\n                /* \"#utility.yul\":1532:1861   */\n            tag_20:\n                /* \"#utility.yul\":1591:1597   */\n              0x00\n                /* \"#utility.yul\":1640:1642   */\n              0x20\n                /* \"#utility.yul\":1628:1637   */\n              dup3\n                /* \"#utility.yul\":1619:1626   */\n              dup5\n                /* \"#utility.yul\":1615:1638   */\n              sub\n                /* \"#utility.yul\":1611:1643   */\n              slt\n                /* \"#utility.yul\":1608:1727   */\n              iszero\n              tag_161\n              jumpi\n                /* \"#utility.yul\":1646:1725   */\n              tag_162\n              tag_104\n              jump\t// in\n            tag_162:\n                /* \"#utility.yul\":1608:1727   */\n            tag_161:\n                /* \"#utility.yul\":1766:1767   */\n              0x00\n                /* \"#utility.yul\":1791:1844   */\n              tag_163\n                /* \"#utility.yul\":1836:1843   */\n              dup5\n                /* \"#utility.yul\":1827:1833   */\n              dup3\n                /* \"#utility.yul\":1816:1825   */\n              dup6\n                /* \"#utility.yul\":1812:1834   */\n              add\n                /* \"#utility.yul\":1791:1844   */\n              tag_112\n              jump\t// in\n            tag_163:\n                /* \"#utility.yul\":1781:1844   */\n              swap2\n              pop\n                /* \"#utility.yul\":1737:1854   */\n              pop\n                /* \"#utility.yul\":1532:1861   */\n              swap3\n              swap2\n              pop\n              pop\n              jump\t// out\n                /* \"#utility.yul\":1867:1957   */\n            tag_113:\n                /* \"#utility.yul\":1901:1908   */\n              0x00\n                /* \"#utility.yul\":1944:1949   */\n              dup2\n                /* \"#utility.yul\":1937:1950   */\n              iszero\n                /* \"#utility.yul\":1930:1951   */\n              iszero\n                /* \"#utility.yul\":1919:1951   */\n              swap1\n              pop\n                /* \"#utility.yul\":1867:1957   */\n              swap2\n              swap1\n              pop\n              jump\t// out\n                /* \"#utility.yul\":1963:2072   */\n            tag_114:\n                /* \"#utility.yul\":2044:2065   */\n              tag_166\n                /* \"#utility.yul\":2059:2064   */\n              dup2\n                /* \"#utility.yul\":2044:2065   */\n              tag_113\n              jump\t// in\n            tag_166:\n                /* \"#utility.yul\":2039:2042   */\n              dup3\n                /* \"#utility.yul\":2032:2066   */\n              mstore\n                /* \"#utility.yul\":1963:2072   */\n              pop\n              pop\n              jump\t// out\n                /* \"#utility.yul\":2078:2288   */\n            tag_23:\n                /* \"#utility.yul\":2165:2169   */\n              0x00\n                /* \"#utility.yul\":2203:2205   */\n              0x20\n                /* \"#utility.yul\":2192:2201   */\n              dup3\n                /* \"#utility.yul\":2188:2206   */\n              add\n                /* \"#utility.yul\":2180:2206   */\n              swap1\n              pop\n                /* \"#utility.yul\":2216:2281   */\n              tag_168\n                /* \"#utility.yul\":2278:2279   */\n              0x00\n                /* \"#utility.yul\":2267:2276   */\n              dup4\n                /* \"#utility.yul\":2263:2280   */\n              add\n                /* \"#utility.yul\":2254:2260   */\n              dup5\n                /* \"#utility.yul\":2216:2281   */\n              tag_114\n              jump\t// in\n            tag_168:\n                /* \"#utility.yul\":2078:2288   */\n              swap3\n              swap2\n              pop\n              pop\n              jump\t// out\n                /* \"#utility.yul\":2294:2412   */\n            tag_115:\n                /* \"#utility.yul\":2381:2405   */\n              tag_170\n                /* \"#utility.yul\":2399:2404   */\n              dup2\n                /* \"#utility.yul\":2381:2405   */\n              tag_110\n              jump\t// in\n            tag_170:\n                /* \"#utility.yul\":2376:2379   */\n              dup3\n                /* \"#utility.yul\":2369:2406   */\n              mstore\n                /* \"#utility.yul\":2294:2412   */\n              pop\n              pop\n              jump\t// out\n                /* \"#utility.yul\":2418:2640   */\n            tag_28:\n                /* \"#utility.yul\":2511:2515   */\n              0x00\n                /* \"#utility.yul\":2549:2551   */\n              0x20\n                /* \"#utility.yul\":2538:2547   */\n              dup3\n                /* \"#utility.yul\":2534:2552   */\n              add\n                /* \"#utility.yul\":2526:2552   */\n              swap1\n              pop\n                /* \"#utility.yul\":2562:2633   */\n              tag_172\n                /* \"#utility.yul\":2630:2631   */\n              0x00\n                /* \"#utility.yul\":2619:2628   */\n              dup4\n                /* \"#utility.yul\":2615:2632   */\n              add\n                /* \"#utility.yul\":2606:2612   */\n              dup5\n                /* \"#utility.yul\":2562:2633   */\n              tag_115\n              jump\t// in\n            tag_172:\n                /* \"#utility.yul\":2418:2640   */\n              swap3\n              swap2\n              pop\n              pop\n              jump\t// out\n                /* \"#utility.yul\":2646:2745   */\n            tag_116:\n                /* \"#utility.yul\":2698:2704   */\n              0x00\n                /* \"#utility.yul\":2732:2737   */\n              dup2\n                /* \"#utility.yul\":2726:2738   */\n              mload\n                /* \"#utility.yul\":2716:2738   */\n              swap1\n              pop\n                /* \"#utility.yul\":2646:2745   */\n              swap2\n              swap1\n              pop\n              jump\t// out\n                /* \"#utility.yul\":2751:2920   */\n            tag_117:\n                /* \"#utility.yul\":2835:2846   */\n              0x00\n                /* \"#utility.yul\":2869:2875   */\n              dup3\n                /* \"#utility.yul\":2864:2867   */\n              dup3\n                /* \"#utility.yul\":2857:2876   */\n              mstore\n                /* \"#utility.yul\":2909:2913   */\n              0x20\n                /* \"#utility.yul\":2904:2907   */\n              dup3\n                /* \"#utility.yul\":2900:2914   */\n              add\n                /* \"#utility.yul\":2885:2914   */\n              swap1\n              pop\n                /* \"#utility.yul\":2751:2920   */\n              swap3\n              swap2\n              pop\n              pop\n              jump\t// out\n                /* \"#utility.yul\":2926:3233   */\n            tag_118:\n                /* \"#utility.yul\":2994:2995   */\n              0x00\n                /* \"#utility.yul\":3004:3117   */\n            tag_176:\n                /* \"#utility.yul\":3018:3024   */\n              dup4\n                /* \"#utility.yul\":3015:3016   */\n              dup2\n                /* \"#utility.yul\":3012:3025   */\n              lt\n                /* \"#utility.yul\":3004:3117   */\n              iszero\n              tag_178\n              jumpi\n                /* \"#utility.yul\":3103:3104   */\n              dup1\n                /* \"#utility.yul\":3098:3101   */\n              dup3\n                /* \"#utility.yul\":3094:3105   */\n              add\n                /* \"#utility.yul\":3088:3106   */\n              mload\n                /* \"#utility.yul\":3084:3085   */\n              dup2\n                /* \"#utility.yul\":3079:3082   */\n              dup5\n                /* \"#utility.yul\":3075:3086   */\n              add\n                /* \"#utility.yul\":3068:3107   */\n              mstore\n                /* \"#utility.yul\":3040:3042   */\n              0x20\n                /* \"#utility.yul\":3037:3038   */\n              dup2\n                /* \"#utility.yul\":3033:3043   */\n              add\n                /* \"#utility.yul\":3028:3043   */\n              swap1\n              pop\n                /* \"#utility.yul\":3004:3117   */\n              jump(tag_176)\n            tag_178:\n                /* \"#utility.yul\":3135:3141   */\n              dup4\n                /* \"#utility.yul\":3132:3133   */\n              dup2\n                /* \"#utility.yul\":3129:3142   */\n              gt\n                /* \"#utility.yul\":3126:3227   */\n              iszero\n              tag_179\n              jumpi\n                /* \"#utility.yul\":3215:3216   */\n              0x00\n                /* \"#utility.yul\":3206:3212   */\n              dup5\n                /* \"#utility.yul\":3201:3204   */\n              dup5\n                /* \"#utility.yul\":3197:3213   */\n              add\n                /* \"#utility.yul\":3190:3217   */\n              mstore\n                /* \"#utility.yul\":3126:3227   */\n            tag_179:\n                /* \"#utility.yul\":2975:3233   */\n              pop\n                /* \"#utility.yul\":2926:3233   */\n              pop\n              pop\n              pop\n              jump\t// out\n                /* \"#utility.yul\":3239:3341   */\n            tag_119:\n                /* \"#utility.yul\":3280:3286   */\n              0x00\n                /* \"#utility.yul\":3331:3333   */\n              0x1f\n                /* \"#utility.yul\":3327:3334   */\n              not\n                /* \"#utility.yul\":3322:3324   */\n              0x1f\n                /* \"#utility.yul\":3315:3320   */\n              dup4\n                /* \"#utility.yul\":3311:3325   */\n              add\n                /* \"#utility.yul\":3307:3335   */\n              and\n                /* \"#utility.yul\":3297:3335   */\n              swap1\n              pop\n                /* \"#utility.yul\":3239:3341   */\n              swap2\n              swap1\n              pop\n              jump\t// out\n                /* \"#utility.yul\":3347:3711   */\n            tag_120:\n                /* \"#utility.yul\":3435:3438   */\n              0x00\n                /* \"#utility.yul\":3463:3502   */\n              tag_182\n                /* \"#utility.yul\":3496:3501   */\n              dup3\n                /* \"#utility.yul\":3463:3502   */\n              tag_116\n              jump\t// in\n            tag_182:\n                /* \"#utility.yul\":3518:3589   */\n              tag_183\n                /* \"#utility.yul\":3582:3588   */\n              dup2\n                /* \"#utility.yul\":3577:3580   */\n              dup6\n                /* \"#utility.yul\":3518:3589   */\n              tag_117\n              jump\t// in\n            tag_183:\n                /* \"#utility.yul\":3511:3589   */\n              swap4\n              pop\n                /* \"#utility.yul\":3598:3650   */\n              tag_184\n                /* \"#utility.yul\":3643:3649   */\n              dup2\n                /* \"#utility.yul\":3638:3641   */\n              dup6\n                /* \"#utility.yul\":3631:3635   */\n              0x20\n                /* \"#utility.yul\":3624:3629   */\n              dup7\n                /* \"#utility.yul\":3620:3636   */\n              add\n                /* \"#utility.yul\":3598:3650   */\n              tag_118\n              jump\t// in\n            tag_184:\n                /* \"#utility.yul\":3675:3704   */\n              tag_185\n                /* \"#utility.yul\":3697:3703   */\n              dup2\n                /* \"#utility.yul\":3675:3704   */\n              tag_119\n              jump\t// in\n            tag_185:\n                /* \"#utility.yul\":3670:3673   */\n              dup5\n                /* \"#utility.yul\":3666:3705   */\n              add\n                /* \"#utility.yul\":3659:3705   */\n              swap2\n              pop\n                /* \"#utility.yul\":3439:3711   */\n              pop\n                /* \"#utility.yul\":3347:3711   */\n              swap3\n              swap2\n              pop\n              pop\n              jump\t// out\n                /* \"#utility.yul\":3717:3835   */\n            tag_121:\n                /* \"#utility.yul\":3804:3828   */\n              tag_187\n                /* \"#utility.yul\":3822:3827   */\n              dup2\n                /* \"#utility.yul\":3804:3828   */\n              tag_106\n              jump\t// in\n            tag_187:\n                /* \"#utility.yul\":3799:3802   */\n              dup3\n                /* \"#utility.yul\":3792:3829   */\n              mstore\n                /* \"#utility.yul\":3717:3835   */\n              pop\n              pop\n              jump\t// out\n                /* \"#utility.yul\":3841:3945   */\n            tag_122:\n                /* \"#utility.yul\":3886:3893   */\n              0x00\n                /* \"#utility.yul\":3915:3939   */\n              tag_189\n                /* \"#utility.yul\":3933:3938   */\n              dup3\n                /* \"#utility.yul\":3915:3939   */\n              tag_109\n              jump\t// in\n            tag_189:\n                /* \"#utility.yul\":3904:3939   */\n              swap1\n              pop\n                /* \"#utility.yul\":3841:3945   */\n              swap2\n              swap1\n              pop\n              jump\t// out\n                /* \"#utility.yul\":3951:4093   */\n            tag_123:\n                /* \"#utility.yul\":4054:4086   */\n              tag_191\n                /* \"#utility.yul\":4080:4085   */\n              dup2\n                /* \"#utility.yul\":4054:4086   */\n              tag_122\n              jump\t// in\n            tag_191:\n                /* \"#utility.yul\":4049:4052   */\n              dup3\n                /* \"#utility.yul\":4042:4087   */\n              mstore\n                /* \"#utility.yul\":3951:4093   */\n              pop\n              pop\n              jump\t// out\n                /* \"#utility.yul\":4099:4874   */\n            tag_34:\n                /* \"#utility.yul\":4334:4338   */\n              0x00\n                /* \"#utility.yul\":4372:4375   */\n              0xa0\n                /* \"#utility.yul\":4361:4370   */\n              dup3\n                /* \"#utility.yul\":4357:4376   */\n              add\n                /* \"#utility.yul\":4349:4376   */\n              swap1\n              pop\n                /* \"#utility.yul\":4422:4431   */\n              dup2\n                /* \"#utility.yul\":4416:4420   */\n              dup2\n                /* \"#utility.yul\":4412:4432   */\n              sub\n                /* \"#utility.yul\":4408:4409   */\n              0x00\n                /* \"#utility.yul\":4397:4406   */\n              dup4\n                /* \"#utility.yul\":4393:4410   */\n              add\n                /* \"#utility.yul\":4386:4433   */\n              mstore\n                /* \"#utility.yul\":4450:4528   */\n              tag_193\n                /* \"#utility.yul\":4523:4527   */\n              dup2\n                /* \"#utility.yul\":4514:4520   */\n              dup9\n                /* \"#utility.yul\":4450:4528   */\n              tag_120\n              jump\t// in\n            tag_193:\n                /* \"#utility.yul\":4442:4528   */\n              swap1\n              pop\n                /* \"#utility.yul\":4538:4610   */\n              tag_194\n                /* \"#utility.yul\":4606:4608   */\n              0x20\n                /* \"#utility.yul\":4595:4604   */\n              dup4\n                /* \"#utility.yul\":4591:4609   */\n              add\n                /* \"#utility.yul\":4582:4588   */\n              dup8\n                /* \"#utility.yul\":4538:4610   */\n              tag_121\n              jump\t// in\n            tag_194:\n                /* \"#utility.yul\":4620:4708   */\n              tag_195\n                /* \"#utility.yul\":4704:4706   */\n              0x40\n                /* \"#utility.yul\":4693:4702   */\n              dup4\n                /* \"#utility.yul\":4689:4707   */\n              add\n                /* \"#utility.yul\":4680:4686   */\n              dup7\n                /* \"#utility.yul\":4620:4708   */\n              tag_123\n              jump\t// in\n            tag_195:\n                /* \"#utility.yul\":4718:4784   */\n              tag_196\n                /* \"#utility.yul\":4780:4782   */\n              0x60\n                /* \"#utility.yul\":4769:4778   */\n              dup4\n                /* \"#utility.yul\":4765:4783   */\n              add\n                /* \"#utility.yul\":4756:4762   */\n              dup6\n                /* \"#utility.yul\":4718:4784   */\n              tag_114\n              jump\t// in\n            tag_196:\n                /* \"#utility.yul\":4794:4867   */\n              tag_197\n                /* \"#utility.yul\":4862:4865   */\n              0x80\n                /* \"#utility.yul\":4851:4860   */\n              dup4\n                /* \"#utility.yul\":4847:4866   */\n              add\n                /* \"#utility.yul\":4838:4844   */\n              dup5\n                /* \"#utility.yul\":4794:4867   */\n              tag_121\n              jump\t// in\n            tag_197:\n                /* \"#utility.yul\":4099:4874   */\n              swap7\n              swap6\n              pop\n              pop\n              pop\n              pop\n              pop\n              pop\n              jump\t// out\n                /* \"#utility.yul\":4880:5102   */\n            tag_39:\n                /* \"#utility.yul\":4973:4977   */\n              0x00\n                /* \"#utility.yul\":5011:5013   */\n              0x20\n                /* \"#utility.yul\":5000:5009   */\n              dup3\n                /* \"#utility.yul\":4996:5014   */\n              add\n                /* \"#utility.yul\":4988:5014   */\n              swap1\n              pop\n                /* \"#utility.yul\":5024:5095   */\n              tag_199\n                /* \"#utility.yul\":5092:5093   */\n              0x00\n                /* \"#utility.yul\":5081:5090   */\n              dup4\n                /* \"#utility.yul\":5077:5094   */\n              add\n                /* \"#utility.yul\":5068:5074   */\n              dup5\n                /* \"#utility.yul\":5024:5095   */\n              tag_121\n              jump\t// in\n            tag_199:\n                /* \"#utility.yul\":4880:5102   */\n              swap3\n              swap2\n              pop\n              pop\n              jump\t// out\n                /* \"#utility.yul\":5108:5225   */\n            tag_124:\n                /* \"#utility.yul\":5217:5218   */\n              0x00\n                /* \"#utility.yul\":5214:5215   */\n              dup1\n                /* \"#utility.yul\":5207:5219   */\n              revert\n                /* \"#utility.yul\":5231:5348   */\n            tag_125:\n                /* \"#utility.yul\":5340:5341   */\n              0x00\n                /* \"#utility.yul\":5337:5338   */\n              dup1\n                /* \"#utility.yul\":5330:5342   */\n              revert\n                /* \"#utility.yul\":5354:5534   */\n            tag_126:\n                /* \"#utility.yul\":5402:5479   */\n              0x4e487b7100000000000000000000000000000000000000000000000000000000\n                /* \"#utility.yul\":5399:5400   */\n              0x00\n                /* \"#utility.yul\":5392:5480   */\n              mstore\n                /* \"#utility.yul\":5499:5503   */\n              0x41\n                /* \"#utility.yul\":5496:5497   */\n              0x04\n                /* \"#utility.yul\":5489:5504   */\n              mstore\n                /* \"#utility.yul\":5523:5527   */\n              0x24\n                /* \"#utility.yul\":5520:5521   */\n              0x00\n                /* \"#utility.yul\":5513:5528   */\n              revert\n                /* \"#utility.yul\":5540:5821   */\n            tag_127:\n                /* \"#utility.yul\":5623:5650   */\n              tag_204\n                /* \"#utility.yul\":5645:5649   */\n              dup3\n                /* \"#utility.yul\":5623:5650   */\n              tag_119\n              jump\t// in\n            tag_204:\n                /* \"#utility.yul\":5615:5621   */\n              dup2\n                /* \"#utility.yul\":5611:5651   */\n              add\n                /* \"#utility.yul\":5753:5759   */\n              dup2\n                /* \"#utility.yul\":5741:5751   */\n              dup2\n                /* \"#utility.yul\":5738:5760   */\n              lt\n                /* \"#utility.yul\":5717:5735   */\n              0xffffffffffffffff\n                /* \"#utility.yul\":5705:5715   */\n              dup3\n                /* \"#utility.yul\":5702:5736   */\n              gt\n                /* \"#utility.yul\":5699:5761   */\n              or\n                /* \"#utility.yul\":5696:5784   */\n              iszero\n              tag_205\n              jumpi\n                /* \"#utility.yul\":5764:5782   */\n              tag_206\n              tag_126\n              jump\t// in\n            tag_206:\n                /* \"#utility.yul\":5696:5784   */\n            tag_205:\n                /* \"#utility.yul\":5804:5814   */\n              dup1\n                /* \"#utility.yul\":5800:5802   */\n              0x40\n                /* \"#utility.yul\":5793:5815   */\n              mstore\n                /* \"#utility.yul\":5583:5821   */\n              pop\n                /* \"#utility.yul\":5540:5821   */\n              pop\n              pop\n              jump\t// out\n                /* \"#utility.yul\":5827:5956   */\n            tag_128:\n                /* \"#utility.yul\":5861:5867   */\n              0x00\n                /* \"#utility.yul\":5888:5908   */\n              tag_208\n              tag_103\n              jump\t// in\n            tag_208:\n                /* \"#utility.yul\":5878:5908   */\n              swap1\n              pop\n                /* \"#utility.yul\":5917:5950   */\n              tag_209\n                /* \"#utility.yul\":5945:5949   */\n              dup3\n                /* \"#utility.yul\":5937:5943   */\n              dup3\n                /* \"#utility.yul\":5917:5950   */\n              tag_127\n              jump\t// in\n            tag_209:\n                /* \"#utility.yul\":5827:5956   */\n              swap2\n              swap1\n              pop\n              jump\t// out\n                /* \"#utility.yul\":5962:6270   */\n            tag_129:\n                /* \"#utility.yul\":6024:6028   */\n              0x00\n                /* \"#utility.yul\":6114:6132   */\n              0xffffffffffffffff\n                /* \"#utility.yul\":6106:6112   */\n              dup3\n                /* \"#utility.yul\":6103:6133   */\n              gt\n                /* \"#utility.yul\":6100:6156   */\n              iszero\n              tag_211\n              jumpi\n                /* \"#utility.yul\":6136:6154   */\n              tag_212\n              tag_126\n              jump\t// in\n            tag_212:\n                /* \"#utility.yul\":6100:6156   */\n            tag_211:\n                /* \"#utility.yul\":6174:6203   */\n              tag_213\n                /* \"#utility.yul\":6196:6202   */\n              dup3\n                /* \"#utility.yul\":6174:6203   */\n              tag_119\n              jump\t// in\n            tag_213:\n                /* \"#utility.yul\":6166:6203   */\n              swap1\n              pop\n                /* \"#utility.yul\":6258:6262   */\n              0x20\n                /* \"#utility.yul\":6252:6256   */\n              dup2\n                /* \"#utility.yul\":6248:6263   */\n              add\n                /* \"#utility.yul\":6240:6263   */\n              swap1\n              pop\n                /* \"#utility.yul\":5962:6270   */\n              swap2\n              swap1\n              pop\n              jump\t// out\n                /* \"#utility.yul\":6276:6430   */\n            tag_130:\n                /* \"#utility.yul\":6360:6366   */\n              dup3\n                /* \"#utility.yul\":6355:6358   */\n              dup2\n                /* \"#utility.yul\":6350:6353   */\n              dup4\n                /* \"#utility.yul\":6337:6367   */\n              calldatacopy\n                /* \"#utility.yul\":6422:6423   */\n              0x00\n                /* \"#utility.yul\":6413:6419   */\n              dup4\n                /* \"#utility.yul\":6408:6411   */\n              dup4\n                /* \"#utility.yul\":6404:6420   */\n              add\n                /* \"#utility.yul\":6397:6424   */\n              mstore\n                /* \"#utility.yul\":6276:6430   */\n              pop\n              pop\n              pop\n              jump\t// out\n                /* \"#utility.yul\":6436:6848   */\n            tag_131:\n                /* \"#utility.yul\":6514:6519   */\n              0x00\n                /* \"#utility.yul\":6539:6605   */\n              tag_216\n                /* \"#utility.yul\":6555:6604   */\n              tag_217\n                /* \"#utility.yul\":6597:6603   */\n              dup5\n                /* \"#utility.yul\":6555:6604   */\n              tag_129\n              jump\t// in\n            tag_217:\n                /* \"#utility.yul\":6539:6605   */\n              tag_128\n              jump\t// in\n            tag_216:\n                /* \"#utility.yul\":6530:6605   */\n              swap1\n              pop\n                /* \"#utility.yul\":6628:6634   */\n              dup3\n                /* \"#utility.yul\":6621:6626   */\n              dup2\n                /* \"#utility.yul\":6614:6635   */\n              mstore\n                /* \"#utility.yul\":6666:6670   */\n              0x20\n                /* \"#utility.yul\":6659:6664   */\n              dup2\n                /* \"#utility.yul\":6655:6671   */\n              add\n                /* \"#utility.yul\":6704:6707   */\n              dup5\n                /* \"#utility.yul\":6695:6701   */\n              dup5\n                /* \"#utility.yul\":6690:6693   */\n              dup5\n                /* \"#utility.yul\":6686:6702   */\n              add\n                /* \"#utility.yul\":6683:6708   */\n              gt\n                /* \"#utility.yul\":6680:6792   */\n              iszero\n              tag_218\n              jumpi\n                /* \"#utility.yul\":6711:6790   */\n              tag_219\n              tag_125\n              jump\t// in\n            tag_219:\n                /* \"#utility.yul\":6680:6792   */\n            tag_218:\n                /* \"#utility.yul\":6801:6842   */\n              tag_220\n                /* \"#utility.yul\":6835:6841   */\n              dup5\n                /* \"#utility.yul\":6830:6833   */\n              dup3\n                /* \"#utility.yul\":6825:6828   */\n              dup6\n                /* \"#utility.yul\":6801:6842   */\n              tag_130\n              jump\t// in\n            tag_220:\n                /* \"#utility.yul\":6520:6848   */\n              pop\n                /* \"#utility.yul\":6436:6848   */\n              swap4\n              swap3\n              pop\n              pop\n              pop\n              jump\t// out\n                /* \"#utility.yul\":6868:7208   */\n            tag_132:\n                /* \"#utility.yul\":6924:6929   */\n              0x00\n                /* \"#utility.yul\":6973:6976   */\n              dup3\n                /* \"#utility.yul\":6966:6970   */\n              0x1f\n                /* \"#utility.yul\":6958:6964   */\n              dup4\n                /* \"#utility.yul\":6954:6971   */\n              add\n                /* \"#utility.yul\":6950:6977   */\n              slt\n                /* \"#utility.yul\":6940:7062   */\n              tag_222\n              jumpi\n                /* \"#utility.yul\":6981:7060   */\n              tag_223\n              tag_124\n              jump\t// in\n            tag_223:\n                /* \"#utility.yul\":6940:7062   */\n            tag_222:\n                /* \"#utility.yul\":7098:7104   */\n              dup2\n                /* \"#utility.yul\":7085:7105   */\n              calldataload\n                /* \"#utility.yul\":7123:7202   */\n              tag_224\n                /* \"#utility.yul\":7198:7201   */\n              dup5\n                /* \"#utility.yul\":7190:7196   */\n              dup3\n                /* \"#utility.yul\":7183:7187   */\n              0x20\n                /* \"#utility.yul\":7175:7181   */\n              dup7\n                /* \"#utility.yul\":7171:7188   */\n              add\n                /* \"#utility.yul\":7123:7202   */\n              tag_131\n              jump\t// in\n            tag_224:\n                /* \"#utility.yul\":7114:7202   */\n              swap2\n              pop\n                /* \"#utility.yul\":6930:7208   */\n              pop\n                /* \"#utility.yul\":6868:7208   */\n              swap3\n              swap2\n              pop\n              pop\n              jump\t// out\n                /* \"#utility.yul\":7214:7352   */\n            tag_133:\n                /* \"#utility.yul\":7295:7327   */\n              tag_226\n                /* \"#utility.yul\":7321:7326   */\n              dup2\n                /* \"#utility.yul\":7295:7327   */\n              tag_122\n              jump\t// in\n            tag_226:\n                /* \"#utility.yul\":7288:7293   */\n              dup2\n                /* \"#utility.yul\":7285:7328   */\n              eq\n                /* \"#utility.yul\":7275:7346   */\n              tag_227\n              jumpi\n                /* \"#utility.yul\":7342:7343   */\n              0x00\n                /* \"#utility.yul\":7339:7340   */\n              dup1\n                /* \"#utility.yul\":7332:7344   */\n              revert\n                /* \"#utility.yul\":7275:7346   */\n            tag_227:\n                /* \"#utility.yul\":7214:7352   */\n              pop\n              jump\t// out\n                /* \"#utility.yul\":7358:7513   */\n            tag_134:\n                /* \"#utility.yul\":7412:7417   */\n              0x00\n                /* \"#utility.yul\":7450:7456   */\n              dup2\n                /* \"#utility.yul\":7437:7457   */\n              calldataload\n                /* \"#utility.yul\":7428:7457   */\n              swap1\n              pop\n                /* \"#utility.yul\":7466:7507   */\n              tag_229\n                /* \"#utility.yul\":7501:7506   */\n              dup2\n                /* \"#utility.yul\":7466:7507   */\n              tag_133\n              jump\t// in\n            tag_229:\n                /* \"#utility.yul\":7358:7513   */\n              swap3\n              swap2\n              pop\n              pop\n              jump\t// out\n                /* \"#utility.yul\":7519:8334   */\n            tag_43:\n                /* \"#utility.yul\":7614:7620   */\n              0x00\n                /* \"#utility.yul\":7622:7628   */\n              dup1\n                /* \"#utility.yul\":7630:7636   */\n              0x00\n                /* \"#utility.yul\":7679:7681   */\n              0x60\n                /* \"#utility.yul\":7667:7676   */\n              dup5\n                /* \"#utility.yul\":7658:7665   */\n              dup7\n                /* \"#utility.yul\":7654:7677   */\n              sub\n                /* \"#utility.yul\":7650:7682   */\n              slt\n                /* \"#utility.yul\":7647:7766   */\n              iszero\n              tag_231\n              jumpi\n                /* \"#utility.yul\":7685:7764   */\n              tag_232\n              tag_104\n              jump\t// in\n            tag_232:\n                /* \"#utility.yul\":7647:7766   */\n            tag_231:\n                /* \"#utility.yul\":7833:7834   */\n              0x00\n                /* \"#utility.yul\":7822:7831   */\n              dup5\n                /* \"#utility.yul\":7818:7835   */\n              add\n                /* \"#utility.yul\":7805:7836   */\n              calldataload\n                /* \"#utility.yul\":7863:7881   */\n              0xffffffffffffffff\n                /* \"#utility.yul\":7855:7861   */\n              dup2\n                /* \"#utility.yul\":7852:7882   */\n              gt\n                /* \"#utility.yul\":7849:7966   */\n              iszero\n              tag_233\n              jumpi\n                /* \"#utility.yul\":7885:7964   */\n              tag_234\n              tag_105\n              jump\t// in\n            tag_234:\n                /* \"#utility.yul\":7849:7966   */\n            tag_233:\n                /* \"#utility.yul\":7990:8053   */\n              tag_235\n                /* \"#utility.yul\":8045:8052   */\n              dup7\n                /* \"#utility.yul\":8036:8042   */\n              dup3\n                /* \"#utility.yul\":8025:8034   */\n              dup8\n                /* \"#utility.yul\":8021:8043   */\n              add\n                /* \"#utility.yul\":7990:8053   */\n              tag_132\n              jump\t// in\n            tag_235:\n                /* \"#utility.yul\":7980:8053   */\n              swap4\n              pop\n                /* \"#utility.yul\":7776:8063   */\n              pop\n                /* \"#utility.yul\":8102:8104   */\n              0x20\n                /* \"#utility.yul\":8128:8181   */\n              tag_236\n                /* \"#utility.yul\":8173:8180   */\n              dup7\n                /* \"#utility.yul\":8164:8170   */\n              dup3\n                /* \"#utility.yul\":8153:8162   */\n              dup8\n                /* \"#utility.yul\":8149:8171   */\n              add\n                /* \"#utility.yul\":8128:8181   */\n              tag_108\n              jump\t// in\n            tag_236:\n                /* \"#utility.yul\":8118:8181   */\n              swap3\n              pop\n                /* \"#utility.yul\":8073:8191   */\n              pop\n                /* \"#utility.yul\":8230:8232   */\n              0x40\n                /* \"#utility.yul\":8256:8317   */\n              tag_237\n                /* \"#utility.yul\":8309:8316   */\n              dup7\n                /* \"#utility.yul\":8300:8306   */\n              dup3\n                /* \"#utility.yul\":8289:8298   */\n              dup8\n                /* \"#utility.yul\":8285:8307   */\n              add\n                /* \"#utility.yul\":8256:8317   */\n              tag_134\n              jump\t// in\n            tag_237:\n                /* \"#utility.yul\":8246:8317   */\n              swap2\n              pop\n                /* \"#utility.yul\":8201:8327   */\n              pop\n                /* \"#utility.yul\":7519:8334   */\n              swap3\n              pop\n              swap3\n              pop\n              swap3\n              jump\t// out\n                /* \"#utility.yul\":8340:8520   */\n            tag_60:\n                /* \"#utility.yul\":8388:8465   */\n              0x4e487b7100000000000000000000000000000000000000000000000000000000\n                /* \"#utility.yul\":8385:8386   */\n              0x00\n                /* \"#utility.yul\":8378:8466   */\n              mstore\n                /* \"#utility.yul\":8485:8489   */\n              0x32\n                /* \"#utility.yul\":8482:8483   */\n              0x04\n                /* \"#utility.yul\":8475:8490   */\n              mstore\n                /* \"#utility.yul\":8509:8513   */\n              0x24\n                /* \"#utility.yul\":8506:8507   */\n              0x00\n                /* \"#utility.yul\":8499:8514   */\n              revert\n                /* \"#utility.yul\":8526:8706   */\n            tag_135:\n                /* \"#utility.yul\":8574:8651   */\n              0x4e487b7100000000000000000000000000000000000000000000000000000000\n                /* \"#utility.yul\":8571:8572   */\n              0x00\n                /* \"#utility.yul\":8564:8652   */\n              mstore\n                /* \"#utility.yul\":8671:8675   */\n              0x12\n                /* \"#utility.yul\":8668:8669   */\n              0x04\n                /* \"#utility.yul\":8661:8676   */\n              mstore\n                /* \"#utility.yul\":8695:8699   */\n              0x24\n                /* \"#utility.yul\":8692:8693   */\n              0x00\n                /* \"#utility.yul\":8685:8700   */\n              revert\n                /* \"#utility.yul\":8712:8892   */\n            tag_136:\n                /* \"#utility.yul\":8760:8837   */\n              0x4e487b7100000000000000000000000000000000000000000000000000000000\n                /* \"#utility.yul\":8757:8758   */\n              0x00\n                /* \"#utility.yul\":8750:8838   */\n              mstore\n                /* \"#utility.yul\":8857:8861   */\n              0x11\n                /* \"#utility.yul\":8854:8855   */\n              0x04\n                /* \"#utility.yul\":8847:8862   */\n              mstore\n                /* \"#utility.yul\":8881:8885   */\n              0x24\n                /* \"#utility.yul\":8878:8879   */\n              0x00\n                /* \"#utility.yul\":8871:8886   */\n              revert\n                /* \"#utility.yul\":8898:9083   */\n            tag_64:\n                /* \"#utility.yul\":8938:8939   */\n              0x00\n                /* \"#utility.yul\":8955:8975   */\n              tag_242\n                /* \"#utility.yul\":8973:8974   */\n              dup3\n                /* \"#utility.yul\":8955:8975   */\n              tag_106\n              jump\t// in\n            tag_242:\n                /* \"#utility.yul\":8950:8975   */\n              swap2\n              pop\n                /* \"#utility.yul\":8989:9009   */\n              tag_243\n                /* \"#utility.yul\":9007:9008   */\n              dup4\n                /* \"#utility.yul\":8989:9009   */\n              tag_106\n              jump\t// in\n            tag_243:\n                /* \"#utility.yul\":8984:9009   */\n              swap3\n              pop\n                /* \"#utility.yul\":9028:9029   */\n              dup3\n                /* \"#utility.yul\":9018:9053   */\n              tag_244\n              jumpi\n                /* \"#utility.yul\":9033:9051   */\n              tag_245\n              tag_135\n              jump\t// in\n            tag_245:\n                /* \"#utility.yul\":9018:9053   */\n            tag_244:\n                /* \"#utility.yul\":9075:9076   */\n              dup3\n                /* \"#utility.yul\":9072:9073   */\n              dup3\n                /* \"#utility.yul\":9068:9077   */\n              div\n                /* \"#utility.yul\":9063:9077   */\n              swap1\n              pop\n                /* \"#utility.yul\":8898:9083   */\n              swap3\n              swap2\n              pop\n              pop\n              jump\t// out\n                /* \"#utility.yul\":9089:9269   */\n            tag_137:\n                /* \"#utility.yul\":9137:9214   */\n              0x4e487b7100000000000000000000000000000000000000000000000000000000\n                /* \"#utility.yul\":9134:9135   */\n              0x00\n                /* \"#utility.yul\":9127:9215   */\n              mstore\n                /* \"#utility.yul\":9234:9238   */\n              0x22\n                /* \"#utility.yul\":9231:9232   */\n              0x04\n                /* \"#utility.yul\":9224:9239   */\n              mstore\n                /* \"#utility.yul\":9258:9262   */\n              0x24\n                /* \"#utility.yul\":9255:9256   */\n              0x00\n                /* \"#utility.yul\":9248:9263   */\n              revert\n                /* \"#utility.yul\":9275:9595   */\n            tag_71:\n                /* \"#utility.yul\":9319:9325   */\n              0x00\n                /* \"#utility.yul\":9356:9357   */\n              0x02\n                /* \"#utility.yul\":9350:9354   */\n              dup3\n                /* \"#utility.yul\":9346:9358   */\n              div\n                /* \"#utility.yul\":9336:9358   */\n              swap1\n              pop\n                /* \"#utility.yul\":9403:9404   */\n              0x01\n                /* \"#utility.yul\":9397:9401   */\n              dup3\n                /* \"#utility.yul\":9393:9405   */\n              and\n                /* \"#utility.yul\":9424:9442   */\n              dup1\n                /* \"#utility.yul\":9414:9495   */\n              tag_248\n              jumpi\n                /* \"#utility.yul\":9480:9484   */\n              0x7f\n                /* \"#utility.yul\":9472:9478   */\n              dup3\n                /* \"#utility.yul\":9468:9485   */\n              and\n                /* \"#utility.yul\":9458:9485   */\n              swap2\n              pop\n                /* \"#utility.yul\":9414:9495   */\n            tag_248:\n                /* \"#utility.yul\":9542:9544   */\n              0x20\n                /* \"#utility.yul\":9534:9540   */\n              dup3\n                /* \"#utility.yul\":9531:9545   */\n              lt\n                /* \"#utility.yul\":9511:9529   */\n              dup2\n                /* \"#utility.yul\":9508:9546   */\n              sub\n                /* \"#utility.yul\":9505:9589   */\n              tag_249\n              jumpi\n                /* \"#utility.yul\":9561:9579   */\n              tag_250\n              tag_137\n              jump\t// in\n            tag_250:\n                /* \"#utility.yul\":9505:9589   */\n            tag_249:\n                /* \"#utility.yul\":9326:9595   */\n              pop\n                /* \"#utility.yul\":9275:9595   */\n              swap2\n              swap1\n              pop\n              jump\t// out\n                /* \"#utility.yul\":9601:9834   */\n            tag_85:\n                /* \"#utility.yul\":9640:9643   */\n              0x00\n                /* \"#utility.yul\":9663:9687   */\n              tag_252\n                /* \"#utility.yul\":9681:9686   */\n              dup3\n                /* \"#utility.yul\":9663:9687   */\n              tag_106\n              jump\t// in\n            tag_252:\n                /* \"#utility.yul\":9654:9687   */\n              swap2\n              pop\n                /* \"#utility.yul\":9709:9775   */\n              0xffffffffffffffffffffffffffffffffffffffffffffffffffffffffffffffff\n                /* \"#utility.yul\":9702:9707   */\n              dup3\n                /* \"#utility.yul\":9699:9776   */\n              sub\n                /* \"#utility.yul\":9696:9799   */\n              tag_253\n              jumpi\n                /* \"#utility.yul\":9779:9797   */\n              tag_254\n              tag_136\n              jump\t// in\n            tag_254:\n                /* \"#utility.yul\":9696:9799   */\n            tag_253:\n                /* \"#utility.yul\":9826:9827   */\n              0x01\n                /* \"#utility.yul\":9819:9824   */\n              dup3\n                /* \"#utility.yul\":9815:9828   */\n              add\n                /* \"#utility.yul\":9808:9828   */\n              swap1\n              pop\n                /* \"#utility.yul\":9601:9834   */\n              swap2\n              swap1\n              pop\n              jump\t// out\n\n            auxdata: 0xa26469706673582212203132f997ffe5ecfd1e35463efec2b3c70093401dc990d559b7dfffa081e93fd064736f6c634300080e0033\n        }\n    }\n\n    auxdata: 0xa2646970667358221220caeae203d628d61b5e91a9d26888eac6827dca92e1ebb4d8f87a4e3eb3608df464736f6c634300080e0033\n}\n","bytecode":{"linkReferences":{},"object":"608060405234801561001057600080fd5b506113ef806100206000396000f3fe608060405234801561001057600080fd5b50600436106100415760003560e01c8063339d50a5146100465780634acb9d4f14610076578063a3303a7514610094575b600080fd5b610060600480360381019061005b9190610266565b6100b0565b60405161006d91906102d4565b60405180910390f35b61007e6100ef565b60405161008b91906103ad565b60405180910390f35b6100ae60048036038101906100a99190610266565b61017d565b005b600081815481106100c057600080fd5b906000526020600020016000915054906101000a900473ffffffffffffffffffffffffffffffffffffffff1681565b6060600080548060200260200160405190810160405280929190818152602001828054801561017357602002820191906000526020600020905b8160009054906101000a900473ffffffffffffffffffffffffffffffffffffffff1673ffffffffffffffffffffffffffffffffffffffff1681526020019060010190808311610129575b5050505050905090565b6000813360405161018d9061021e565b6101989291906103de565b604051809103906000f0801580156101b4573d6000803e3d6000fd5b5090506000819080600181540180825580915050600190039060005260206000200160009091909190916101000a81548173ffffffffffffffffffffffffffffffffffffffff021916908373ffffffffffffffffffffffffffffffffffffffff1602179055505050565b610fb28061040883390190565b600080fd5b6000819050919050565b61024381610230565b811461024e57600080fd5b50565b6000813590506102608161023a565b92915050565b60006020828403121561027c5761027b61022b565b5b600061028a84828501610251565b91505092915050565b600073ffffffffffffffffffffffffffffffffffffffff82169050919050565b60006102be82610293565b9050919050565b6102ce816102b3565b82525050565b60006020820190506102e960008301846102c5565b92915050565b600081519050919050565b600082825260208201905092915050565b6000819050602082019050919050565b610324816102b3565b82525050565b6000610336838361031b565b60208301905092915050565b6000602082019050919050565b600061035a826102ef565b61036481856102fa565b935061036f8361030b565b8060005b838110156103a0578151610387888261032a565b975061039283610342565b925050600181019050610373565b5085935050505092915050565b600060208201905081810360008301526103c7818461034f565b905092915050565b6103d881610230565b82525050565b60006040820190506103f360008301856103cf565b61040060208301846102c5565b939250505056fe60806040523480156200001157600080fd5b5060405162000fb238038062000fb283398181016040528101906200003791906200012c565b80600160006101000a81548173ffffffffffffffffffffffffffffffffffffffff021916908373ffffffffffffffffffffffffffffffffffffffff16021790555081600281905550505062000173565b600080fd5b6000819050919050565b620000a1816200008c565b8114620000ad57600080fd5b50565b600081519050620000c18162000096565b92915050565b600073ffffffffffffffffffffffffffffffffffffffff82169050919050565b6000620000f482620000c7565b9050919050565b6200010681620000e7565b81146200011257600080fd5b50565b6000815190506200012681620000fb565b92915050565b6000806040838503121562000146576200014562000087565b5b60006200015685828601620000b0565b9250506020620001698582860162000115565b9150509250929050565b610e2f80620001836000396000f3fe6080604052600436106100865760003560e01c806382fde0931161005957806382fde0931461015d5780638a9cfd5514610188578063937e09b1146101b1578063d7bb99ba146101dc578063d7d1bbdb146101e657610086565b8063034410061461008b5780630a144391146100b4578063481c6a75146100f157806381d12c581461011c575b600080fd5b34801561009757600080fd5b506100b260048036038101906100ad919061086d565b61020f565b005b3480156100c057600080fd5b506100db60048036038101906100d691906108f8565b610358565b6040516100e89190610940565b60405180910390f35b3480156100fd57600080fd5b50610106610378565b604051610113919061096a565b60405180910390f35b34801561012857600080fd5b50610143600480360381019061013e919061086d565b61039e565b604051610154959493929190610a4e565b60405180910390f35b34801561016957600080fd5b50610172610499565b60405161017f9190610aa8565b60405180910390f35b34801561019457600080fd5b506101af60048036038101906101aa9190610c24565b61049f565b005b3480156101bd57600080fd5b506101c66105ae565b6040516101d39190610aa8565b60405180910390f35b6101e46105b4565b005b3480156101f257600080fd5b5061020d6004803603810190610208919061086d565b610634565b005b600160009054906101000a900473ffffffffffffffffffffffffffffffffffffffff1673ffffffffffffffffffffffffffffffffffffffff163373ffffffffffffffffffffffffffffffffffffffff161461026957600080fd5b600080828154811061027e5761027d610c93565b5b906000526020600020906005020190508060020160149054906101000a900460ff16156102aa57600080fd5b60026004546102b99190610d20565b8160030154116102c857600080fd5b8060020160009054906101000a900473ffffffffffffffffffffffffffffffffffffffff1673ffffffffffffffffffffffffffffffffffffffff166108fc82600101549081150290604051600060405180830381858888f19350505050158015610336573d6000803e3d6000fd5b5060018160020160146101000a81548160ff0219169083151502179055505050565b60036020528060005260406000206000915054906101000a900460ff1681565b600160009054906101000a900473ffffffffffffffffffffffffffffffffffffffff1681565b600081815481106103ae57600080fd5b90600052602060002090600502016000915090508060000180546103d190610d80565b80601f01602080910402602001604051908101604052809291908181526020018280546103fd90610d80565b801561044a5780601f1061041f5761010080835404028352916020019161044a565b820191906000526020600020905b81548152906001019060200180831161042d57829003601f168201915b5050505050908060010154908060020160009054906101000a900473ffffffffffffffffffffffffffffffffffffffff16908060020160149054906101000a900460ff16908060030154905085565b60045481565b600160009054906101000a900473ffffffffffffffffffffffffffffffffffffffff1673ffffffffffffffffffffffffffffffffffffffff163373ffffffffffffffffffffffffffffffffffffffff16146104f957600080fd5b600080600181600181540180825580915050039060005260206000209060050201905083816000019080519060200190610534929190610780565b50828160010181905550818160020160006101000a81548173ffffffffffffffffffffffffffffffffffffffff021916908373ffffffffffffffffffffffffffffffffffffffff16021790555060008160020160146101000a81548160ff0219169083151502179055506000816003018190555050505050565b60025481565b60025434116105c257600080fd5b6001600360003373ffffffffffffffffffffffffffffffffffffffff1673ffffffffffffffffffffffffffffffffffffffff16815260200190815260200160002060006101000a81548160ff0219169083151502179055506004600081548092919061062d90610db1565b9190505550565b600080828154811061064957610648610c93565b5b90600052602060002090600502019050600360003373ffffffffffffffffffffffffffffffffffffffff1673ffffffffffffffffffffffffffffffffffffffff16815260200190815260200160002060009054906101000a900460ff166106af57600080fd5b8060040160003373ffffffffffffffffffffffffffffffffffffffff1673ffffffffffffffffffffffffffffffffffffffff16815260200190815260200160002060009054906101000a900460ff161561070857600080fd5b60018160040160003373ffffffffffffffffffffffffffffffffffffffff1673ffffffffffffffffffffffffffffffffffffffff16815260200190815260200160002060006101000a81548160ff02191690831515021790555080600301600081548092919061077790610db1565b91905055505050565b82805461078c90610d80565b90600052602060002090601f0160209004810192826107ae57600085556107f5565b82601f106107c757805160ff19168380011785556107f5565b828001600101855582156107f5579182015b828111156107f45782518255916020019190600101906107d9565b5b5090506108029190610806565b5090565b5b8082111561081f576000816000905550600101610807565b5090565b6000604051905090565b600080fd5b600080fd5b6000819050919050565b61084a81610837565b811461085557600080fd5b50565b60008135905061086781610841565b92915050565b6000602082840312156108835761088261082d565b5b600061089184828501610858565b91505092915050565b600073ffffffffffffffffffffffffffffffffffffffff82169050919050565b60006108c58261089a565b9050919050565b6108d5816108ba565b81146108e057600080fd5b50565b6000813590506108f2816108cc565b92915050565b60006020828403121561090e5761090d61082d565b5b600061091c848285016108e3565b91505092915050565b60008115159050919050565b61093a81610925565b82525050565b60006020820190506109556000830184610931565b92915050565b610964816108ba565b82525050565b600060208201905061097f600083018461095b565b92915050565b600081519050919050565b600082825260208201905092915050565b60005b838110156109bf5780820151818401526020810190506109a4565b838111156109ce576000848401525b50505050565b6000601f19601f8301169050919050565b60006109f082610985565b6109fa8185610990565b9350610a0a8185602086016109a1565b610a13816109d4565b840191505092915050565b610a2781610837565b82525050565b6000610a388261089a565b9050919050565b610a4881610a2d565b82525050565b600060a0820190508181036000830152610a6881886109e5565b9050610a776020830187610a1e565b610a846040830186610a3f565b610a916060830185610931565b610a9e6080830184610a1e565b9695505050505050565b6000602082019050610abd6000830184610a1e565b92915050565b600080fd5b600080fd5b7f4e487b7100000000000000000000000000000000000000000000000000000000600052604160045260246000fd5b610b05826109d4565b810181811067ffffffffffffffff82111715610b2457610b23610acd565b5b80604052505050565b6000610b37610823565b9050610b438282610afc565b919050565b600067ffffffffffffffff821115610b6357610b62610acd565b5b610b6c826109d4565b9050602081019050919050565b82818337600083830152505050565b6000610b9b610b9684610b48565b610b2d565b905082815260208101848484011115610bb757610bb6610ac8565b5b610bc2848285610b79565b509392505050565b600082601f830112610bdf57610bde610ac3565b5b8135610bef848260208601610b88565b91505092915050565b610c0181610a2d565b8114610c0c57600080fd5b50565b600081359050610c1e81610bf8565b92915050565b600080600060608486031215610c3d57610c3c61082d565b5b600084013567ffffffffffffffff811115610c5b57610c5a610832565b5b610c6786828701610bca565b9350506020610c7886828701610858565b9250506040610c8986828701610c0f565b9150509250925092565b7f4e487b7100000000000000000000000000000000000000000000000000000000600052603260045260246000fd5b7f4e487b7100000000000000000000000000000000000000000000000000000000600052601260045260246000fd5b7f4e487b7100000000000000000000000000000000000000000000000000000000600052601160045260246000fd5b6000610d2b82610837565b9150610d3683610837565b925082610d4657610d45610cc2565b5b828204905092915050565b7f4e487b7100000000000000000000000000000000000000000000000000000000600052602260045260246000fd5b60006002820490506001821680610d9857607f821691505b602082108103610dab57610daa610d51565b5b50919050565b6000610dbc82610837565b91507fffffffffffffffffffffffffffffffffffffffffffffffffffffffffffffffff8203610dee57610ded610cf1565b5b60018201905091905056fea26469706673582212203132f997ffe5ecfd1e35463efec2b3c70093401dc990d559b7dfffa081e93fd064736f6c634300080e0033a2646970667358221220caeae203d628d61b5e91a9d26888eac6827dca92e1ebb4d8f87a4e3eb3608df464736f6c634300080e0033","opcodes":"PUSH1 0x80 PUSH1 0x40 MSTORE CALLVALUE DUP1 ISZERO PUSH2 0x10 JUMPI PUSH1 0x0 DUP1 REVERT JUMPDEST POP PUSH2 0x13EF DUP1 PUSH2 0x20 PUSH1 0x0 CODECOPY PUSH1 0x0 RETURN INVALID PUSH1 0x80 PUSH1 0x40 MSTORE CALLVALUE DUP1 ISZERO PUSH2 0x10 JUMPI PUSH1 0x0 DUP1 REVERT JUMPDEST POP PUSH1 0x4 CALLDATASIZE LT PUSH2 0x41 JUMPI PUSH1 0x0 CALLDATALOAD PUSH1 0xE0 SHR DUP1 PUSH4 0x339D50A5 EQ PUSH2 0x46 JUMPI DUP1 PUSH4 0x4ACB9D4F EQ PUSH2 0x76 JUMPI DUP1 PUSH4 0xA3303A75 EQ PUSH2 0x94 JUMPI JUMPDEST PUSH1 0x0 DUP1 REVERT JUMPDEST PUSH2 0x60 PUSH1 0x4 DUP1 CALLDATASIZE SUB DUP2 ADD SWAP1 PUSH2 0x5B SWAP2 SWAP1 PUSH2 0x266 JUMP JUMPDEST PUSH2 0xB0 JUMP JUMPDEST PUSH1 0x40 MLOAD PUSH2 0x6D SWAP2 SWAP1 PUSH2 0x2D4 JUMP JUMPDEST PUSH1 0x40 MLOAD DUP1 SWAP2 SUB SWAP1 RETURN JUMPDEST PUSH2 0x7E PUSH2 0xEF JUMP JUMPDEST PUSH1 0x40 MLOAD PUSH2 0x8B SWAP2 SWAP1 PUSH2 0x3AD JUMP JUMPDEST PUSH1 0x40 MLOAD DUP1 SWAP2 SUB SWAP1 RETURN JUMPDEST PUSH2 0xAE PUSH1 0x4 DUP1 CALLDATASIZE SUB DUP2 ADD SWAP1 PUSH2 0xA9 SWAP2 SWAP1 PUSH2 0x266 JUMP JUMPDEST PUSH2 0x17D JUMP JUMPDEST STOP JUMPDEST PUSH1 0x0 DUP2 DUP2 SLOAD DUP2 LT PUSH2 0xC0 JUMPI PUSH1 0x0 DUP1 REVERT JUMPDEST SWAP1 PUSH1 0x0 MSTORE PUSH1 0x20 PUSH1 0x0 KECCAK256 ADD PUSH1 0x0 SWAP2 POP SLOAD SWAP1 PUSH2 0x100 EXP SWAP1 DIV PUSH20 0xFFFFFFFFFFFFFFFFFFFFFFFFFFFFFFFFFFFFFFFF AND DUP2 JUMP JUMPDEST PUSH1 0x60 PUSH1 0x0 DUP1 SLOAD DUP1 PUSH1 0x20 MUL PUSH1 0x20 ADD PUSH1 0x40 MLOAD SWAP1 DUP2 ADD PUSH1 0x40 MSTORE DUP1 SWAP3 SWAP2 SWAP1 DUP2 DUP2 MSTORE PUSH1 0x20 ADD DUP3 DUP1 SLOAD DUP1 ISZERO PUSH2 0x173 JUMPI PUSH1 0x20 MUL DUP3 ADD SWAP2 SWAP1 PUSH1 0x0 MSTORE PUSH1 0x20 PUSH1 0x0 KECCAK256 SWAP1 JUMPDEST DUP2 PUSH1 0x0 SWAP1 SLOAD SWAP1 PUSH2 0x100 EXP SWAP1 DIV PUSH20 0xFFFFFFFFFFFFFFFFFFFFFFFFFFFFFFFFFFFFFFFF AND PUSH20 0xFFFFFFFFFFFFFFFFFFFFFFFFFFFFFFFFFFFFFFFF AND DUP2 MSTORE PUSH1 0x20 ADD SWAP1 PUSH1 0x1 ADD SWAP1 DUP1 DUP4 GT PUSH2 0x129 JUMPI JUMPDEST POP POP POP POP POP SWAP1 POP SWAP1 JUMP JUMPDEST PUSH1 0x0 DUP2 CALLER PUSH1 0x40 MLOAD PUSH2 0x18D SWAP1 PUSH2 0x21E JUMP JUMPDEST PUSH2 0x198 SWAP3 SWAP2 SWAP1 PUSH2 0x3DE JUMP JUMPDEST PUSH1 0x40 MLOAD DUP1 SWAP2 SUB SWAP1 PUSH1 0x0 CREATE DUP1 ISZERO DUP1 ISZERO PUSH2 0x1B4 JUMPI RETURNDATASIZE PUSH1 0x0 DUP1 RETURNDATACOPY RETURNDATASIZE PUSH1 0x0 REVERT JUMPDEST POP SWAP1 POP PUSH1 0x0 DUP2 SWAP1 DUP1 PUSH1 0x1 DUP2 SLOAD ADD DUP1 DUP3 SSTORE DUP1 SWAP2 POP POP PUSH1 0x1 SWAP1 SUB SWAP1 PUSH1 0x0 MSTORE PUSH1 0x20 PUSH1 0x0 KECCAK256 ADD PUSH1 0x0 SWAP1 SWAP2 SWAP1 SWAP2 SWAP1 SWAP2 PUSH2 0x100 EXP DUP2 SLOAD DUP2 PUSH20 0xFFFFFFFFFFFFFFFFFFFFFFFFFFFFFFFFFFFFFFFF MUL NOT AND SWAP1 DUP4 PUSH20 0xFFFFFFFFFFFFFFFFFFFFFFFFFFFFFFFFFFFFFFFF AND MUL OR SWAP1 SSTORE POP POP POP JUMP JUMPDEST PUSH2 0xFB2 DUP1 PUSH2 0x408 DUP4 CODECOPY ADD SWAP1 JUMP JUMPDEST PUSH1 0x0 DUP1 REVERT JUMPDEST PUSH1 0x0 DUP2 SWAP1 POP SWAP2 SWAP1 POP JUMP JUMPDEST PUSH2 0x243 DUP2 PUSH2 0x230 JUMP JUMPDEST DUP2 EQ PUSH2 0x24E JUMPI PUSH1 0x0 DUP1 REVERT JUMPDEST POP JUMP JUMPDEST PUSH1 0x0 DUP2 CALLDATALOAD SWAP1 POP PUSH2 0x260 DUP2 PUSH2 0x23A JUMP JUMPDEST SWAP3 SWAP2 POP POP JUMP JUMPDEST PUSH1 0x0 PUSH1 0x20 DUP3 DUP5 SUB SLT ISZERO PUSH2 0x27C JUMPI PUSH2 0x27B PUSH2 0x22B JUMP JUMPDEST JUMPDEST PUSH1 0x0 PUSH2 0x28A DUP5 DUP3 DUP6 ADD PUSH2 0x251 JUMP JUMPDEST SWAP2 POP POP SWAP3 SWAP2 POP POP JUMP JUMPDEST PUSH1 0x0 PUSH20 0xFFFFFFFFFFFFFFFFFFFFFFFFFFFFFFFFFFFFFFFF DUP3 AND SWAP1 POP SWAP2 SWAP1 POP JUMP JUMPDEST PUSH1 0x0 PUSH2 0x2BE DUP3 PUSH2 0x293 JUMP JUMPDEST SWAP1 POP SWAP2 SWAP1 POP JUMP JUMPDEST PUSH2 0x2CE DUP2 PUSH2 0x2B3 JUMP JUMPDEST DUP3 MSTORE POP POP JUMP JUMPDEST PUSH1 0x0 PUSH1 0x20 DUP3 ADD SWAP1 POP PUSH2 0x2E9 PUSH1 0x0 DUP4 ADD DUP5 PUSH2 0x2C5 JUMP JUMPDEST SWAP3 SWAP2 POP POP JUMP JUMPDEST PUSH1 0x0 DUP2 MLOAD SWAP1 POP SWAP2 SWAP1 POP JUMP JUMPDEST PUSH1 0x0 DUP3 DUP3 MSTORE PUSH1 0x20 DUP3 ADD SWAP1 POP SWAP3 SWAP2 POP POP JUMP JUMPDEST PUSH1 0x0 DUP2 SWAP1 POP PUSH1 0x20 DUP3 ADD SWAP1 POP SWAP2 SWAP1 POP JUMP JUMPDEST PUSH2 0x324 DUP2 PUSH2 0x2B3 JUMP JUMPDEST DUP3 MSTORE POP POP JUMP JUMPDEST PUSH1 0x0 PUSH2 0x336 DUP4 DUP4 PUSH2 0x31B JUMP JUMPDEST PUSH1 0x20 DUP4 ADD SWAP1 POP SWAP3 SWAP2 POP POP JUMP JUMPDEST PUSH1 0x0 PUSH1 0x20 DUP3 ADD SWAP1 POP SWAP2 SWAP1 POP JUMP JUMPDEST PUSH1 0x0 PUSH2 0x35A DUP3 PUSH2 0x2EF JUMP JUMPDEST PUSH2 0x364 DUP2 DUP6 PUSH2 0x2FA JUMP JUMPDEST SWAP4 POP PUSH2 0x36F DUP4 PUSH2 0x30B JUMP JUMPDEST DUP1 PUSH1 0x0 JUMPDEST DUP4 DUP2 LT ISZERO PUSH2 0x3A0 JUMPI DUP2 MLOAD PUSH2 0x387 DUP9 DUP3 PUSH2 0x32A JUMP JUMPDEST SWAP8 POP PUSH2 0x392 DUP4 PUSH2 0x342 JUMP JUMPDEST SWAP3 POP POP PUSH1 0x1 DUP2 ADD SWAP1 POP PUSH2 0x373 JUMP JUMPDEST POP DUP6 SWAP4 POP POP POP POP SWAP3 SWAP2 POP POP JUMP JUMPDEST PUSH1 0x0 PUSH1 0x20 DUP3 ADD SWAP1 POP DUP2 DUP2 SUB PUSH1 0x0 DUP4 ADD MSTORE PUSH2 0x3C7 DUP2 DUP5 PUSH2 0x34F JUMP JUMPDEST SWAP1 POP SWAP3 SWAP2 POP POP JUMP JUMPDEST PUSH2 0x3D8 DUP2 PUSH2 0x230 JUMP JUMPDEST DUP3 MSTORE POP POP JUMP JUMPDEST PUSH1 0x0 PUSH1 0x40 DUP3 ADD SWAP1 POP PUSH2 0x3F3 PUSH1 0x0 DUP4 ADD DUP6 PUSH2 0x3CF JUMP JUMPDEST PUSH2 0x400 PUSH1 0x20 DUP4 ADD DUP5 PUSH2 0x2C5 JUMP JUMPDEST SWAP4 SWAP3 POP POP POP JUMP INVALID PUSH1 0x80 PUSH1 0x40 MSTORE CALLVALUE DUP1 ISZERO PUSH3 0x11 JUMPI PUSH1 0x0 DUP1 REVERT JUMPDEST POP PUSH1 0x40 MLOAD PUSH3 0xFB2 CODESIZE SUB DUP1 PUSH3 0xFB2 DUP4 CODECOPY DUP2 DUP2 ADD PUSH1 0x40 MSTORE DUP2 ADD SWAP1 PUSH3 0x37 SWAP2 SWAP1 PUSH3 0x12C JUMP JUMPDEST DUP1 PUSH1 0x1 PUSH1 0x0 PUSH2 0x100 EXP DUP2 SLOAD DUP2 PUSH20 0xFFFFFFFFFFFFFFFFFFFFFFFFFFFFFFFFFFFFFFFF MUL NOT AND SWAP1 DUP4 PUSH20 0xFFFFFFFFFFFFFFFFFFFFFFFFFFFFFFFFFFFFFFFF AND MUL OR SWAP1 SSTORE POP DUP2 PUSH1 0x2 DUP2 SWAP1 SSTORE POP POP POP PUSH3 0x173 JUMP JUMPDEST PUSH1 0x0 DUP1 REVERT JUMPDEST PUSH1 0x0 DUP2 SWAP1 POP SWAP2 SWAP1 POP JUMP JUMPDEST PUSH3 0xA1 DUP2 PUSH3 0x8C JUMP JUMPDEST DUP2 EQ PUSH3 0xAD JUMPI PUSH1 0x0 DUP1 REVERT JUMPDEST POP JUMP JUMPDEST PUSH1 0x0 DUP2 MLOAD SWAP1 POP PUSH3 0xC1 DUP2 PUSH3 0x96 JUMP JUMPDEST SWAP3 SWAP2 POP POP JUMP JUMPDEST PUSH1 0x0 PUSH20 0xFFFFFFFFFFFFFFFFFFFFFFFFFFFFFFFFFFFFFFFF DUP3 AND SWAP1 POP SWAP2 SWAP1 POP JUMP JUMPDEST PUSH1 0x0 PUSH3 0xF4 DUP3 PUSH3 0xC7 JUMP JUMPDEST SWAP1 POP SWAP2 SWAP1 POP JUMP JUMPDEST PUSH3 0x106 DUP2 PUSH3 0xE7 JUMP JUMPDEST DUP2 EQ PUSH3 0x112 JUMPI PUSH1 0x0 DUP1 REVERT JUMPDEST POP JUMP JUMPDEST PUSH1 0x0 DUP2 MLOAD SWAP1 POP PUSH3 0x126 DUP2 PUSH3 0xFB JUMP JUMPDEST SWAP3 SWAP2 POP POP JUMP JUMPDEST PUSH1 0x0 DUP1 PUSH1 0x40 DUP4 DUP6 SUB SLT ISZERO PUSH3 0x146 JUMPI PUSH3 0x145 PUSH3 0x87 JUMP JUMPDEST JUMPDEST PUSH1 0x0 PUSH3 0x156 DUP6 DUP3 DUP7 ADD PUSH3 0xB0 JUMP JUMPDEST SWAP3 POP POP PUSH1 0x20 PUSH3 0x169 DUP6 DUP3 DUP7 ADD PUSH3 0x115 JUMP JUMPDEST SWAP2 POP POP SWAP3 POP SWAP3 SWAP1 POP JUMP JUMPDEST PUSH2 0xE2F DUP1 PUSH3 0x183 PUSH1 0x0 CODECOPY PUSH1 0x0 RETURN INVALID PUSH1 0x80 PUSH1 0x40 MSTORE PUSH1 0x4 CALLDATASIZE LT PUSH2 0x86 JUMPI PUSH1 0x0 CALLDATALOAD PUSH1 0xE0 SHR DUP1 PUSH4 0x82FDE093 GT PUSH2 0x59 JUMPI DUP1 PUSH4 0x82FDE093 EQ PUSH2 0x15D JUMPI DUP1 PUSH4 0x8A9CFD55 EQ PUSH2 0x188 JUMPI DUP1 PUSH4 0x937E09B1 EQ PUSH2 0x1B1 JUMPI DUP1 PUSH4 0xD7BB99BA EQ PUSH2 0x1DC JUMPI DUP1 PUSH4 0xD7D1BBDB EQ PUSH2 0x1E6 JUMPI PUSH2 0x86 JUMP JUMPDEST DUP1 PUSH4 0x3441006 EQ PUSH2 0x8B JUMPI DUP1 PUSH4 0xA144391 EQ PUSH2 0xB4 JUMPI DUP1 PUSH4 0x481C6A75 EQ PUSH2 0xF1 JUMPI DUP1 PUSH4 0x81D12C58 EQ PUSH2 0x11C JUMPI JUMPDEST PUSH1 0x0 DUP1 REVERT JUMPDEST CALLVALUE DUP1 ISZERO PUSH2 0x97 JUMPI PUSH1 0x0 DUP1 REVERT JUMPDEST POP PUSH2 0xB2 PUSH1 0x4 DUP1 CALLDATASIZE SUB DUP2 ADD SWAP1 PUSH2 0xAD SWAP2 SWAP1 PUSH2 0x86D JUMP JUMPDEST PUSH2 0x20F JUMP JUMPDEST STOP JUMPDEST CALLVALUE DUP1 ISZERO PUSH2 0xC0 JUMPI PUSH1 0x0 DUP1 REVERT JUMPDEST POP PUSH2 0xDB PUSH1 0x4 DUP1 CALLDATASIZE SUB DUP2 ADD SWAP1 PUSH2 0xD6 SWAP2 SWAP1 PUSH2 0x8F8 JUMP JUMPDEST PUSH2 0x358 JUMP JUMPDEST PUSH1 0x40 MLOAD PUSH2 0xE8 SWAP2 SWAP1 PUSH2 0x940 JUMP JUMPDEST PUSH1 0x40 MLOAD DUP1 SWAP2 SUB SWAP1 RETURN JUMPDEST CALLVALUE DUP1 ISZERO PUSH2 0xFD JUMPI PUSH1 0x0 DUP1 REVERT JUMPDEST POP PUSH2 0x106 PUSH2 0x378 JUMP JUMPDEST PUSH1 0x40 MLOAD PUSH2 0x113 SWAP2 SWAP1 PUSH2 0x96A JUMP JUMPDEST PUSH1 0x40 MLOAD DUP1 SWAP2 SUB SWAP1 RETURN JUMPDEST CALLVALUE DUP1 ISZERO PUSH2 0x128 JUMPI PUSH1 0x0 DUP1 REVERT JUMPDEST POP PUSH2 0x143 PUSH1 0x4 DUP1 CALLDATASIZE SUB DUP2 ADD SWAP1 PUSH2 0x13E SWAP2 SWAP1 PUSH2 0x86D JUMP JUMPDEST PUSH2 0x39E JUMP JUMPDEST PUSH1 0x40 MLOAD PUSH2 0x154 SWAP6 SWAP5 SWAP4 SWAP3 SWAP2 SWAP1 PUSH2 0xA4E JUMP JUMPDEST PUSH1 0x40 MLOAD DUP1 SWAP2 SUB SWAP1 RETURN JUMPDEST CALLVALUE DUP1 ISZERO PUSH2 0x169 JUMPI PUSH1 0x0 DUP1 REVERT JUMPDEST POP PUSH2 0x172 PUSH2 0x499 JUMP JUMPDEST PUSH1 0x40 MLOAD PUSH2 0x17F SWAP2 SWAP1 PUSH2 0xAA8 JUMP JUMPDEST PUSH1 0x40 MLOAD DUP1 SWAP2 SUB SWAP1 RETURN JUMPDEST CALLVALUE DUP1 ISZERO PUSH2 0x194 JUMPI PUSH1 0x0 DUP1 REVERT JUMPDEST POP PUSH2 0x1AF PUSH1 0x4 DUP1 CALLDATASIZE SUB DUP2 ADD SWAP1 PUSH2 0x1AA SWAP2 SWAP1 PUSH2 0xC24 JUMP JUMPDEST PUSH2 0x49F JUMP JUMPDEST STOP JUMPDEST CALLVALUE DUP1 ISZERO PUSH2 0x1BD JUMPI PUSH1 0x0 DUP1 REVERT JUMPDEST POP PUSH2 0x1C6 PUSH2 0x5AE JUMP JUMPDEST PUSH1 0x40 MLOAD PUSH2 0x1D3 SWAP2 SWAP1 PUSH2 0xAA8 JUMP JUMPDEST PUSH1 0x40 MLOAD DUP1 SWAP2 SUB SWAP1 RETURN JUMPDEST PUSH2 0x1E4 PUSH2 0x5B4 JUMP JUMPDEST STOP JUMPDEST CALLVALUE DUP1 ISZERO PUSH2 0x1F2 JUMPI PUSH1 0x0 DUP1 REVERT JUMPDEST POP PUSH2 0x20D PUSH1 0x4 DUP1 CALLDATASIZE SUB DUP2 ADD SWAP1 PUSH2 0x208 SWAP2 SWAP1 PUSH2 0x86D JUMP JUMPDEST PUSH2 0x634 JUMP JUMPDEST STOP JUMPDEST PUSH1 0x1 PUSH1 0x0 SWAP1 SLOAD SWAP1 PUSH2 0x100 EXP SWAP1 DIV PUSH20 0xFFFFFFFFFFFFFFFFFFFFFFFFFFFFFFFFFFFFFFFF AND PUSH20 0xFFFFFFFFFFFFFFFFFFFFFFFFFFFFFFFFFFFFFFFF AND CALLER PUSH20 0xFFFFFFFFFFFFFFFFFFFFFFFFFFFFFFFFFFFFFFFF AND EQ PUSH2 0x269 JUMPI PUSH1 0x0 DUP1 REVERT JUMPDEST PUSH1 0x0 DUP1 DUP3 DUP2 SLOAD DUP2 LT PUSH2 0x27E JUMPI PUSH2 0x27D PUSH2 0xC93 JUMP JUMPDEST JUMPDEST SWAP1 PUSH1 0x0 MSTORE PUSH1 0x20 PUSH1 0x0 KECCAK256 SWAP1 PUSH1 0x5 MUL ADD SWAP1 POP DUP1 PUSH1 0x2 ADD PUSH1 0x14 SWAP1 SLOAD SWAP1 PUSH2 0x100 EXP SWAP1 DIV PUSH1 0xFF AND ISZERO PUSH2 0x2AA JUMPI PUSH1 0x0 DUP1 REVERT JUMPDEST PUSH1 0x2 PUSH1 0x4 SLOAD PUSH2 0x2B9 SWAP2 SWAP1 PUSH2 0xD20 JUMP JUMPDEST DUP2 PUSH1 0x3 ADD SLOAD GT PUSH2 0x2C8 JUMPI PUSH1 0x0 DUP1 REVERT JUMPDEST DUP1 PUSH1 0x2 ADD PUSH1 0x0 SWAP1 SLOAD SWAP1 PUSH2 0x100 EXP SWAP1 DIV PUSH20 0xFFFFFFFFFFFFFFFFFFFFFFFFFFFFFFFFFFFFFFFF AND PUSH20 0xFFFFFFFFFFFFFFFFFFFFFFFFFFFFFFFFFFFFFFFF AND PUSH2 0x8FC DUP3 PUSH1 0x1 ADD SLOAD SWAP1 DUP2 ISZERO MUL SWAP1 PUSH1 0x40 MLOAD PUSH1 0x0 PUSH1 0x40 MLOAD DUP1 DUP4 SUB DUP2 DUP6 DUP9 DUP9 CALL SWAP4 POP POP POP POP ISZERO DUP1 ISZERO PUSH2 0x336 JUMPI RETURNDATASIZE PUSH1 0x0 DUP1 RETURNDATACOPY RETURNDATASIZE PUSH1 0x0 REVERT JUMPDEST POP PUSH1 0x1 DUP2 PUSH1 0x2 ADD PUSH1 0x14 PUSH2 0x100 EXP DUP2 SLOAD DUP2 PUSH1 0xFF MUL NOT AND SWAP1 DUP4 ISZERO ISZERO MUL OR SWAP1 SSTORE POP POP POP JUMP JUMPDEST PUSH1 0x3 PUSH1 0x20 MSTORE DUP1 PUSH1 0x0 MSTORE PUSH1 0x40 PUSH1 0x0 KECCAK256 PUSH1 0x0 SWAP2 POP SLOAD SWAP1 PUSH2 0x100 EXP SWAP1 DIV PUSH1 0xFF AND DUP2 JUMP JUMPDEST PUSH1 0x1 PUSH1 0x0 SWAP1 SLOAD SWAP1 PUSH2 0x100 EXP SWAP1 DIV PUSH20 0xFFFFFFFFFFFFFFFFFFFFFFFFFFFFFFFFFFFFFFFF AND DUP2 JUMP JUMPDEST PUSH1 0x0 DUP2 DUP2 SLOAD DUP2 LT PUSH2 0x3AE JUMPI PUSH1 0x0 DUP1 REVERT JUMPDEST SWAP1 PUSH1 0x0 MSTORE PUSH1 0x20 PUSH1 0x0 KECCAK256 SWAP1 PUSH1 0x5 MUL ADD PUSH1 0x0 SWAP2 POP SWAP1 POP DUP1 PUSH1 0x0 ADD DUP1 SLOAD PUSH2 0x3D1 SWAP1 PUSH2 0xD80 JUMP JUMPDEST DUP1 PUSH1 0x1F ADD PUSH1 0x20 DUP1 SWAP2 DIV MUL PUSH1 0x20 ADD PUSH1 0x40 MLOAD SWAP1 DUP2 ADD PUSH1 0x40 MSTORE DUP1 SWAP3 SWAP2 SWAP1 DUP2 DUP2 MSTORE PUSH1 0x20 ADD DUP3 DUP1 SLOAD PUSH2 0x3FD SWAP1 PUSH2 0xD80 JUMP JUMPDEST DUP1 ISZERO PUSH2 0x44A JUMPI DUP1 PUSH1 0x1F LT PUSH2 0x41F JUMPI PUSH2 0x100 DUP1 DUP4 SLOAD DIV MUL DUP4 MSTORE SWAP2 PUSH1 0x20 ADD SWAP2 PUSH2 0x44A JUMP JUMPDEST DUP3 ADD SWAP2 SWAP1 PUSH1 0x0 MSTORE PUSH1 0x20 PUSH1 0x0 KECCAK256 SWAP1 JUMPDEST DUP2 SLOAD DUP2 MSTORE SWAP1 PUSH1 0x1 ADD SWAP1 PUSH1 0x20 ADD DUP1 DUP4 GT PUSH2 0x42D JUMPI DUP3 SWAP1 SUB PUSH1 0x1F AND DUP3 ADD SWAP2 JUMPDEST POP POP POP POP POP SWAP1 DUP1 PUSH1 0x1 ADD SLOAD SWAP1 DUP1 PUSH1 0x2 ADD PUSH1 0x0 SWAP1 SLOAD SWAP1 PUSH2 0x100 EXP SWAP1 DIV PUSH20 0xFFFFFFFFFFFFFFFFFFFFFFFFFFFFFFFFFFFFFFFF AND SWAP1 DUP1 PUSH1 0x2 ADD PUSH1 0x14 SWAP1 SLOAD SWAP1 PUSH2 0x100 EXP SWAP1 DIV PUSH1 0xFF AND SWAP1 DUP1 PUSH1 0x3 ADD SLOAD SWAP1 POP DUP6 JUMP JUMPDEST PUSH1 0x4 SLOAD DUP2 JUMP JUMPDEST PUSH1 0x1 PUSH1 0x0 SWAP1 SLOAD SWAP1 PUSH2 0x100 EXP SWAP1 DIV PUSH20 0xFFFFFFFFFFFFFFFFFFFFFFFFFFFFFFFFFFFFFFFF AND PUSH20 0xFFFFFFFFFFFFFFFFFFFFFFFFFFFFFFFFFFFFFFFF AND CALLER PUSH20 0xFFFFFFFFFFFFFFFFFFFFFFFFFFFFFFFFFFFFFFFF AND EQ PUSH2 0x4F9 JUMPI PUSH1 0x0 DUP1 REVERT JUMPDEST PUSH1 0x0 DUP1 PUSH1 0x1 DUP2 PUSH1 0x1 DUP2 SLOAD ADD DUP1 DUP3 SSTORE DUP1 SWAP2 POP POP SUB SWAP1 PUSH1 0x0 MSTORE PUSH1 0x20 PUSH1 0x0 KECCAK256 SWAP1 PUSH1 0x5 MUL ADD SWAP1 POP DUP4 DUP2 PUSH1 0x0 ADD SWAP1 DUP1 MLOAD SWAP1 PUSH1 0x20 ADD SWAP1 PUSH2 0x534 SWAP3 SWAP2 SWAP1 PUSH2 0x780 JUMP JUMPDEST POP DUP3 DUP2 PUSH1 0x1 ADD DUP2 SWAP1 SSTORE POP DUP2 DUP2 PUSH1 0x2 ADD PUSH1 0x0 PUSH2 0x100 EXP DUP2 SLOAD DUP2 PUSH20 0xFFFFFFFFFFFFFFFFFFFFFFFFFFFFFFFFFFFFFFFF MUL NOT AND SWAP1 DUP4 PUSH20 0xFFFFFFFFFFFFFFFFFFFFFFFFFFFFFFFFFFFFFFFF AND MUL OR SWAP1 SSTORE POP PUSH1 0x0 DUP2 PUSH1 0x2 ADD PUSH1 0x14 PUSH2 0x100 EXP DUP2 SLOAD DUP2 PUSH1 0xFF MUL NOT AND SWAP1 DUP4 ISZERO ISZERO MUL OR SWAP1 SSTORE POP PUSH1 0x0 DUP2 PUSH1 0x3 ADD DUP2 SWAP1 SSTORE POP POP POP POP POP JUMP JUMPDEST PUSH1 0x2 SLOAD DUP2 JUMP JUMPDEST PUSH1 0x2 SLOAD CALLVALUE GT PUSH2 0x5C2 JUMPI PUSH1 0x0 DUP1 REVERT JUMPDEST PUSH1 0x1 PUSH1 0x3 PUSH1 0x0 CALLER PUSH20 0xFFFFFFFFFFFFFFFFFFFFFFFFFFFFFFFFFFFFFFFF AND PUSH20 0xFFFFFFFFFFFFFFFFFFFFFFFFFFFFFFFFFFFFFFFF AND DUP2 MSTORE PUSH1 0x20 ADD SWAP1 DUP2 MSTORE PUSH1 0x20 ADD PUSH1 0x0 KECCAK256 PUSH1 0x0 PUSH2 0x100 EXP DUP2 SLOAD DUP2 PUSH1 0xFF MUL NOT AND SWAP1 DUP4 ISZERO ISZERO MUL OR SWAP1 SSTORE POP PUSH1 0x4 PUSH1 0x0 DUP2 SLOAD DUP1 SWAP3 SWAP2 SWAP1 PUSH2 0x62D SWAP1 PUSH2 0xDB1 JUMP JUMPDEST SWAP2 SWAP1 POP SSTORE POP JUMP JUMPDEST PUSH1 0x0 DUP1 DUP3 DUP2 SLOAD DUP2 LT PUSH2 0x649 JUMPI PUSH2 0x648 PUSH2 0xC93 JUMP JUMPDEST JUMPDEST SWAP1 PUSH1 0x0 MSTORE PUSH1 0x20 PUSH1 0x0 KECCAK256 SWAP1 PUSH1 0x5 MUL ADD SWAP1 POP PUSH1 0x3 PUSH1 0x0 CALLER PUSH20 0xFFFFFFFFFFFFFFFFFFFFFFFFFFFFFFFFFFFFFFFF AND PUSH20 0xFFFFFFFFFFFFFFFFFFFFFFFFFFFFFFFFFFFFFFFF AND DUP2 MSTORE PUSH1 0x20 ADD SWAP1 DUP2 MSTORE PUSH1 0x20 ADD PUSH1 0x0 KECCAK256 PUSH1 0x0 SWAP1 SLOAD SWAP1 PUSH2 0x100 EXP SWAP1 DIV PUSH1 0xFF AND PUSH2 0x6AF JUMPI PUSH1 0x0 DUP1 REVERT JUMPDEST DUP1 PUSH1 0x4 ADD PUSH1 0x0 CALLER PUSH20 0xFFFFFFFFFFFFFFFFFFFFFFFFFFFFFFFFFFFFFFFF AND PUSH20 0xFFFFFFFFFFFFFFFFFFFFFFFFFFFFFFFFFFFFFFFF AND DUP2 MSTORE PUSH1 0x20 ADD SWAP1 DUP2 MSTORE PUSH1 0x20 ADD PUSH1 0x0 KECCAK256 PUSH1 0x0 SWAP1 SLOAD SWAP1 PUSH2 0x100 EXP SWAP1 DIV PUSH1 0xFF AND ISZERO PUSH2 0x708 JUMPI PUSH1 0x0 DUP1 REVERT JUMPDEST PUSH1 0x1 DUP2 PUSH1 0x4 ADD PUSH1 0x0 CALLER PUSH20 0xFFFFFFFFFFFFFFFFFFFFFFFFFFFFFFFFFFFFFFFF AND PUSH20 0xFFFFFFFFFFFFFFFFFFFFFFFFFFFFFFFFFFFFFFFF AND DUP2 MSTORE PUSH1 0x20 ADD SWAP1 DUP2 MSTORE PUSH1 0x20 ADD PUSH1 0x0 KECCAK256 PUSH1 0x0 PUSH2 0x100 EXP DUP2 SLOAD DUP2 PUSH1 0xFF MUL NOT AND SWAP1 DUP4 ISZERO ISZERO MUL OR SWAP1 SSTORE POP DUP1 PUSH1 0x3 ADD PUSH1 0x0 DUP2 SLOAD DUP1 SWAP3 SWAP2 SWAP1 PUSH2 0x777 SWAP1 PUSH2 0xDB1 JUMP JUMPDEST SWAP2 SWAP1 POP SSTORE POP POP POP JUMP JUMPDEST DUP3 DUP1 SLOAD PUSH2 0x78C SWAP1 PUSH2 0xD80 JUMP JUMPDEST SWAP1 PUSH1 0x0 MSTORE PUSH1 0x20 PUSH1 0x0 KECCAK256 SWAP1 PUSH1 0x1F ADD PUSH1 0x20 SWAP1 DIV DUP2 ADD SWAP3 DUP3 PUSH2 0x7AE JUMPI PUSH1 0x0 DUP6 SSTORE PUSH2 0x7F5 JUMP JUMPDEST DUP3 PUSH1 0x1F LT PUSH2 0x7C7 JUMPI DUP1 MLOAD PUSH1 0xFF NOT AND DUP4 DUP1 ADD OR DUP6 SSTORE PUSH2 0x7F5 JUMP JUMPDEST DUP3 DUP1 ADD PUSH1 0x1 ADD DUP6 SSTORE DUP3 ISZERO PUSH2 0x7F5 JUMPI SWAP2 DUP3 ADD JUMPDEST DUP3 DUP2 GT ISZERO PUSH2 0x7F4 JUMPI DUP3 MLOAD DUP3 SSTORE SWAP2 PUSH1 0x20 ADD SWAP2 SWAP1 PUSH1 0x1 ADD SWAP1 PUSH2 0x7D9 JUMP JUMPDEST JUMPDEST POP SWAP1 POP PUSH2 0x802 SWAP2 SWAP1 PUSH2 0x806 JUMP JUMPDEST POP SWAP1 JUMP JUMPDEST JUMPDEST DUP1 DUP3 GT ISZERO PUSH2 0x81F JUMPI PUSH1 0x0 DUP2 PUSH1 0x0 SWAP1 SSTORE POP PUSH1 0x1 ADD PUSH2 0x807 JUMP JUMPDEST POP SWAP1 JUMP JUMPDEST PUSH1 0x0 PUSH1 0x40 MLOAD SWAP1 POP SWAP1 JUMP JUMPDEST PUSH1 0x0 DUP1 REVERT JUMPDEST PUSH1 0x0 DUP1 REVERT JUMPDEST PUSH1 0x0 DUP2 SWAP1 POP SWAP2 SWAP1 POP JUMP JUMPDEST PUSH2 0x84A DUP2 PUSH2 0x837 JUMP JUMPDEST DUP2 EQ PUSH2 0x855 JUMPI PUSH1 0x0 DUP1 REVERT JUMPDEST POP JUMP JUMPDEST PUSH1 0x0 DUP2 CALLDATALOAD SWAP1 POP PUSH2 0x867 DUP2 PUSH2 0x841 JUMP JUMPDEST SWAP3 SWAP2 POP POP JUMP JUMPDEST PUSH1 0x0 PUSH1 0x20 DUP3 DUP5 SUB SLT ISZERO PUSH2 0x883 JUMPI PUSH2 0x882 PUSH2 0x82D JUMP JUMPDEST JUMPDEST PUSH1 0x0 PUSH2 0x891 DUP5 DUP3 DUP6 ADD PUSH2 0x858 JUMP JUMPDEST SWAP2 POP POP SWAP3 SWAP2 POP POP JUMP JUMPDEST PUSH1 0x0 PUSH20 0xFFFFFFFFFFFFFFFFFFFFFFFFFFFFFFFFFFFFFFFF DUP3 AND SWAP1 POP SWAP2 SWAP1 POP JUMP JUMPDEST PUSH1 0x0 PUSH2 0x8C5 DUP3 PUSH2 0x89A JUMP JUMPDEST SWAP1 POP SWAP2 SWAP1 POP JUMP JUMPDEST PUSH2 0x8D5 DUP2 PUSH2 0x8BA JUMP JUMPDEST DUP2 EQ PUSH2 0x8E0 JUMPI PUSH1 0x0 DUP1 REVERT JUMPDEST POP JUMP JUMPDEST PUSH1 0x0 DUP2 CALLDATALOAD SWAP1 POP PUSH2 0x8F2 DUP2 PUSH2 0x8CC JUMP JUMPDEST SWAP3 SWAP2 POP POP JUMP JUMPDEST PUSH1 0x0 PUSH1 0x20 DUP3 DUP5 SUB SLT ISZERO PUSH2 0x90E JUMPI PUSH2 0x90D PUSH2 0x82D JUMP JUMPDEST JUMPDEST PUSH1 0x0 PUSH2 0x91C DUP5 DUP3 DUP6 ADD PUSH2 0x8E3 JUMP JUMPDEST SWAP2 POP POP SWAP3 SWAP2 POP POP JUMP JUMPDEST PUSH1 0x0 DUP2 ISZERO ISZERO SWAP1 POP SWAP2 SWAP1 POP JUMP JUMPDEST PUSH2 0x93A DUP2 PUSH2 0x925 JUMP JUMPDEST DUP3 MSTORE POP POP JUMP JUMPDEST PUSH1 0x0 PUSH1 0x20 DUP3 ADD SWAP1 POP PUSH2 0x955 PUSH1 0x0 DUP4 ADD DUP5 PUSH2 0x931 JUMP JUMPDEST SWAP3 SWAP2 POP POP JUMP JUMPDEST PUSH2 0x964 DUP2 PUSH2 0x8BA JUMP JUMPDEST DUP3 MSTORE POP POP JUMP JUMPDEST PUSH1 0x0 PUSH1 0x20 DUP3 ADD SWAP1 POP PUSH2 0x97F PUSH1 0x0 DUP4 ADD DUP5 PUSH2 0x95B JUMP JUMPDEST SWAP3 SWAP2 POP POP JUMP JUMPDEST PUSH1 0x0 DUP2 MLOAD SWAP1 POP SWAP2 SWAP1 POP JUMP JUMPDEST PUSH1 0x0 DUP3 DUP3 MSTORE PUSH1 0x20 DUP3 ADD SWAP1 POP SWAP3 SWAP2 POP POP JUMP JUMPDEST PUSH1 0x0 JUMPDEST DUP4 DUP2 LT ISZERO PUSH2 0x9BF JUMPI DUP1 DUP3 ADD MLOAD DUP2 DUP5 ADD MSTORE PUSH1 0x20 DUP2 ADD SWAP1 POP PUSH2 0x9A4 JUMP JUMPDEST DUP4 DUP2 GT ISZERO PUSH2 0x9CE JUMPI PUSH1 0x0 DUP5 DUP5 ADD MSTORE JUMPDEST POP POP POP POP JUMP JUMPDEST PUSH1 0x0 PUSH1 0x1F NOT PUSH1 0x1F DUP4 ADD AND SWAP1 POP SWAP2 SWAP1 POP JUMP JUMPDEST PUSH1 0x0 PUSH2 0x9F0 DUP3 PUSH2 0x985 JUMP JUMPDEST PUSH2 0x9FA DUP2 DUP6 PUSH2 0x990 JUMP JUMPDEST SWAP4 POP PUSH2 0xA0A DUP2 DUP6 PUSH1 0x20 DUP7 ADD PUSH2 0x9A1 JUMP JUMPDEST PUSH2 0xA13 DUP2 PUSH2 0x9D4 JUMP JUMPDEST DUP5 ADD SWAP2 POP POP SWAP3 SWAP2 POP POP JUMP JUMPDEST PUSH2 0xA27 DUP2 PUSH2 0x837 JUMP JUMPDEST DUP3 MSTORE POP POP JUMP JUMPDEST PUSH1 0x0 PUSH2 0xA38 DUP3 PUSH2 0x89A JUMP JUMPDEST SWAP1 POP SWAP2 SWAP1 POP JUMP JUMPDEST PUSH2 0xA48 DUP2 PUSH2 0xA2D JUMP JUMPDEST DUP3 MSTORE POP POP JUMP JUMPDEST PUSH1 0x0 PUSH1 0xA0 DUP3 ADD SWAP1 POP DUP2 DUP2 SUB PUSH1 0x0 DUP4 ADD MSTORE PUSH2 0xA68 DUP2 DUP9 PUSH2 0x9E5 JUMP JUMPDEST SWAP1 POP PUSH2 0xA77 PUSH1 0x20 DUP4 ADD DUP8 PUSH2 0xA1E JUMP JUMPDEST PUSH2 0xA84 PUSH1 0x40 DUP4 ADD DUP7 PUSH2 0xA3F JUMP JUMPDEST PUSH2 0xA91 PUSH1 0x60 DUP4 ADD DUP6 PUSH2 0x931 JUMP JUMPDEST PUSH2 0xA9E PUSH1 0x80 DUP4 ADD DUP5 PUSH2 0xA1E JUMP JUMPDEST SWAP7 SWAP6 POP POP POP POP POP POP JUMP JUMPDEST PUSH1 0x0 PUSH1 0x20 DUP3 ADD SWAP1 POP PUSH2 0xABD PUSH1 0x0 DUP4 ADD DUP5 PUSH2 0xA1E JUMP JUMPDEST SWAP3 SWAP2 POP POP JUMP JUMPDEST PUSH1 0x0 DUP1 REVERT JUMPDEST PUSH1 0x0 DUP1 REVERT JUMPDEST PUSH32 0x4E487B7100000000000000000000000000000000000000000000000000000000 PUSH1 0x0 MSTORE PUSH1 0x41 PUSH1 0x4 MSTORE PUSH1 0x24 PUSH1 0x0 REVERT JUMPDEST PUSH2 0xB05 DUP3 PUSH2 0x9D4 JUMP JUMPDEST DUP2 ADD DUP2 DUP2 LT PUSH8 0xFFFFFFFFFFFFFFFF DUP3 GT OR ISZERO PUSH2 0xB24 JUMPI PUSH2 0xB23 PUSH2 0xACD JUMP JUMPDEST JUMPDEST DUP1 PUSH1 0x40 MSTORE POP POP POP JUMP JUMPDEST PUSH1 0x0 PUSH2 0xB37 PUSH2 0x823 JUMP JUMPDEST SWAP1 POP PUSH2 0xB43 DUP3 DUP3 PUSH2 0xAFC JUMP JUMPDEST SWAP2 SWAP1 POP JUMP JUMPDEST PUSH1 0x0 PUSH8 0xFFFFFFFFFFFFFFFF DUP3 GT ISZERO PUSH2 0xB63 JUMPI PUSH2 0xB62 PUSH2 0xACD JUMP JUMPDEST JUMPDEST PUSH2 0xB6C DUP3 PUSH2 0x9D4 JUMP JUMPDEST SWAP1 POP PUSH1 0x20 DUP2 ADD SWAP1 POP SWAP2 SWAP1 POP JUMP JUMPDEST DUP3 DUP2 DUP4 CALLDATACOPY PUSH1 0x0 DUP4 DUP4 ADD MSTORE POP POP POP JUMP JUMPDEST PUSH1 0x0 PUSH2 0xB9B PUSH2 0xB96 DUP5 PUSH2 0xB48 JUMP JUMPDEST PUSH2 0xB2D JUMP JUMPDEST SWAP1 POP DUP3 DUP2 MSTORE PUSH1 0x20 DUP2 ADD DUP5 DUP5 DUP5 ADD GT ISZERO PUSH2 0xBB7 JUMPI PUSH2 0xBB6 PUSH2 0xAC8 JUMP JUMPDEST JUMPDEST PUSH2 0xBC2 DUP5 DUP3 DUP6 PUSH2 0xB79 JUMP JUMPDEST POP SWAP4 SWAP3 POP POP POP JUMP JUMPDEST PUSH1 0x0 DUP3 PUSH1 0x1F DUP4 ADD SLT PUSH2 0xBDF JUMPI PUSH2 0xBDE PUSH2 0xAC3 JUMP JUMPDEST JUMPDEST DUP2 CALLDATALOAD PUSH2 0xBEF DUP5 DUP3 PUSH1 0x20 DUP7 ADD PUSH2 0xB88 JUMP JUMPDEST SWAP2 POP POP SWAP3 SWAP2 POP POP JUMP JUMPDEST PUSH2 0xC01 DUP2 PUSH2 0xA2D JUMP JUMPDEST DUP2 EQ PUSH2 0xC0C JUMPI PUSH1 0x0 DUP1 REVERT JUMPDEST POP JUMP JUMPDEST PUSH1 0x0 DUP2 CALLDATALOAD SWAP1 POP PUSH2 0xC1E DUP2 PUSH2 0xBF8 JUMP JUMPDEST SWAP3 SWAP2 POP POP JUMP JUMPDEST PUSH1 0x0 DUP1 PUSH1 0x0 PUSH1 0x60 DUP5 DUP7 SUB SLT ISZERO PUSH2 0xC3D JUMPI PUSH2 0xC3C PUSH2 0x82D JUMP JUMPDEST JUMPDEST PUSH1 0x0 DUP5 ADD CALLDATALOAD PUSH8 0xFFFFFFFFFFFFFFFF DUP2 GT ISZERO PUSH2 0xC5B JUMPI PUSH2 0xC5A PUSH2 0x832 JUMP JUMPDEST JUMPDEST PUSH2 0xC67 DUP7 DUP3 DUP8 ADD PUSH2 0xBCA JUMP JUMPDEST SWAP4 POP POP PUSH1 0x20 PUSH2 0xC78 DUP7 DUP3 DUP8 ADD PUSH2 0x858 JUMP JUMPDEST SWAP3 POP POP PUSH1 0x40 PUSH2 0xC89 DUP7 DUP3 DUP8 ADD PUSH2 0xC0F JUMP JUMPDEST SWAP2 POP POP SWAP3 POP SWAP3 POP SWAP3 JUMP JUMPDEST PUSH32 0x4E487B7100000000000000000000000000000000000000000000000000000000 PUSH1 0x0 MSTORE PUSH1 0x32 PUSH1 0x4 MSTORE PUSH1 0x24 PUSH1 0x0 REVERT JUMPDEST PUSH32 0x4E487B7100000000000000000000000000000000000000000000000000000000 PUSH1 0x0 MSTORE PUSH1 0x12 PUSH1 0x4 MSTORE PUSH1 0x24 PUSH1 0x0 REVERT JUMPDEST PUSH32 0x4E487B7100000000000000000000000000000000000000000000000000000000 PUSH1 0x0 MSTORE PUSH1 0x11 PUSH1 0x4 MSTORE PUSH1 0x24 PUSH1 0x0 REVERT JUMPDEST PUSH1 0x0 PUSH2 0xD2B DUP3 PUSH2 0x837 JUMP JUMPDEST SWAP2 POP PUSH2 0xD36 DUP4 PUSH2 0x837 JUMP JUMPDEST SWAP3 POP DUP3 PUSH2 0xD46 JUMPI PUSH2 0xD45 PUSH2 0xCC2 JUMP JUMPDEST JUMPDEST DUP3 DUP3 DIV SWAP1 POP SWAP3 SWAP2 POP POP JUMP JUMPDEST PUSH32 0x4E487B7100000000000000000000000000000000000000000000000000000000 PUSH1 0x0 MSTORE PUSH1 0x22 PUSH1 0x4 MSTORE PUSH1 0x24 PUSH1 0x0 REVERT JUMPDEST PUSH1 0x0 PUSH1 0x2 DUP3 DIV SWAP1 POP PUSH1 0x1 DUP3 AND DUP1 PUSH2 0xD98 JUMPI PUSH1 0x7F DUP3 AND SWAP2 POP JUMPDEST PUSH1 0x20 DUP3 LT DUP2 SUB PUSH2 0xDAB JUMPI PUSH2 0xDAA PUSH2 0xD51 JUMP JUMPDEST JUMPDEST POP SWAP2 SWAP1 POP JUMP JUMPDEST PUSH1 0x0 PUSH2 0xDBC DUP3 PUSH2 0x837 JUMP JUMPDEST SWAP2 POP PUSH32 0xFFFFFFFFFFFFFFFFFFFFFFFFFFFFFFFFFFFFFFFFFFFFFFFFFFFFFFFFFFFFFFFF DUP3 SUB PUSH2 0xDEE JUMPI PUSH2 0xDED PUSH2 0xCF1 JUMP JUMPDEST JUMPDEST PUSH1 0x1 DUP3 ADD SWAP1 POP SWAP2 SWAP1 POP JUMP INVALID LOG2 PUSH5 0x6970667358 0x22 SLT KECCAK256 BALANCE ORIGIN 0xF9 SWAP8 SELFDESTRUCT 0xE5 0xEC REVERT 0x1E CALLDATALOAD CHAINID RETURNDATACOPY INVALID 0xC2 0xB3 0xC7 STOP SWAP4 BLOCKHASH SAR 0xC9 SWAP1 0xD5 MSIZE 0xB7 0xDF SELFDESTRUCT LOG0 DUP2 0xE9 EXTCODEHASH 0xD0 PUSH5 0x736F6C6343 STOP ADDMOD 0xE STOP CALLER LOG2 PUSH5 0x6970667358 0x22 SLT KECCAK256 0xCA 0xEA 0xE2 SUB 0xD6 0x28 0xD6 SHL 0x5E SWAP2 0xA9 0xD2 PUSH9 0x88EAC6827DCA92E1EB 0xB4 0xD8 0xF8 PUSH27 0x4E3EB3608DF464736F6C634300080E003300000000000000000000 "},"gasEstimates":{"creation":{"codeDepositCost":"1020600","executionCost":"1061","totalCost":"1021661"},"external":{"createCampaign(uint256)":"infinite","deployedCampaigns(uint256)":"4934","getDeployedCampaigns()":"infinite"}},"methodIdentifiers":{"createCampaign(uint256)":"a3303a75","deployedCampaigns(uint256)":"339d50a5","getDeployedCampaigns()":"4acb9d4f"}},"storageLayout":{"storage":[{"astId":4,"contract":"Campaign.sol:CampaignFactory","label":"deployedCampaigns","offset":0,"slot":"0","type":"t_array(t_address)dyn_storage"}],"types":{"t_address":{"encoding":"inplace","label":"address","numberOfBytes":"20"},"t_array(t_address)dyn_storage":{"base":"t_address","encoding":"dynamic_array","label":"address[]","numberOfBytes":"32"}}},"userdoc":{"kind":"user","methods":{},"version":1}}